{
	"simplestorage.sol/simplestorage.sol": {
		"SimpleStorage": {
			"abi": [
				{
					"anonymous": false,
					"inputs": [
						{
							"indexed": false,
							"internalType": "uint256",
							"name": "newNumber",
							"type": "uint256"
						},
						{
							"indexed": false,
							"internalType": "address",
							"name": "updatedBy",
							"type": "address"
						}
					],
					"name": "NumberUpdated",
					"type": "event"
				},
				{
					"inputs": [
						{
							"internalType": "string",
							"name": "_inputString",
							"type": "string"
						}
					],
					"name": "ContractStateString",
					"outputs": [
						{
							"internalType": "string",
							"name": "",
							"type": "string"
						}
					],
					"stateMutability": "pure",
					"type": "function"
				},
				{
					"inputs": [],
					"name": "activateContract",
					"outputs": [],
					"stateMutability": "nonpayable",
					"type": "function"
				},
				{
					"inputs": [
						{
							"internalType": "uint256",
							"name": "_number",
							"type": "uint256"
						}
					],
					"name": "addFavoriteNumber",
					"outputs": [],
					"stateMutability": "nonpayable",
					"type": "function"
				},
				{
					"inputs": [
						{
							"internalType": "string",
							"name": "_name",
							"type": "string"
						},
						{
							"internalType": "uint256",
							"name": "_favoriteNumber",
							"type": "uint256"
						}
					],
					"name": "addperson",
					"outputs": [],
					"stateMutability": "nonpayable",
					"type": "function"
				},
				{
					"inputs": [],
					"name": "callInternalFunction",
					"outputs": [
						{
							"internalType": "string",
							"name": "",
							"type": "string"
						}
					],
					"stateMutability": "pure",
					"type": "function"
				},
				{
					"inputs": [],
					"name": "deactivateContract",
					"outputs": [],
					"stateMutability": "nonpayable",
					"type": "function"
				},
				{
					"inputs": [],
					"name": "externalFunction",
					"outputs": [
						{
							"internalType": "string",
							"name": "",
							"type": "string"
						}
					],
					"stateMutability": "pure",
					"type": "function"
				},
				{
					"inputs": [
						{
							"internalType": "uint256",
							"name": "",
							"type": "uint256"
						}
					],
					"name": "favoriteNumbers",
					"outputs": [
						{
							"internalType": "uint256",
							"name": "",
							"type": "uint256"
						}
					],
					"stateMutability": "view",
					"type": "function"
				},
				{
					"inputs": [],
					"name": "getFavoriteNumber",
					"outputs": [
						{
							"internalType": "uint256",
							"name": "",
							"type": "uint256"
						}
					],
					"stateMutability": "view",
					"type": "function"
				},
				{
					"inputs": [],
					"name": "isActive",
					"outputs": [
						{
							"internalType": "bool",
							"name": "",
							"type": "bool"
						}
					],
					"stateMutability": "view",
					"type": "function"
				},
				{
					"inputs": [
						{
							"internalType": "uint256",
							"name": "_compareValue",
							"type": "uint256"
						}
					],
					"name": "isGreaterThan",
					"outputs": [
						{
							"internalType": "bool",
							"name": "",
							"type": "bool"
						}
					],
					"stateMutability": "view",
					"type": "function"
				},
				{
					"inputs": [
						{
							"internalType": "string",
							"name": "",
							"type": "string"
						}
					],
					"name": "nameTofavoriteNumber",
					"outputs": [
						{
							"internalType": "uint256",
							"name": "",
							"type": "uint256"
						}
					],
					"stateMutability": "view",
					"type": "function"
				},
				{
					"inputs": [
						{
							"internalType": "uint256",
							"name": "",
							"type": "uint256"
						}
					],
					"name": "people",
					"outputs": [
						{
							"internalType": "string",
							"name": "name",
							"type": "string"
						},
						{
							"internalType": "uint256",
							"name": "favoriteNumber",
							"type": "uint256"
						}
					],
					"stateMutability": "view",
					"type": "function"
				},
				{
					"inputs": [],
					"name": "state",
					"outputs": [
						{
							"internalType": "enum SimpleStorage.ContractState",
							"name": "",
							"type": "uint8"
						}
					],
					"stateMutability": "view",
					"type": "function"
				},
				{
					"inputs": [
						{
							"internalType": "uint256",
							"name": "_favoriteNumber",
							"type": "uint256"
						}
					],
					"name": "storeFavoriteNumber",
					"outputs": [],
					"stateMutability": "nonpayable",
					"type": "function"
				},
				{
					"inputs": [
						{
							"internalType": "uint256",
							"name": "_favoriteNumber",
							"type": "uint256"
						}
					],
					"name": "storeNumber",
					"outputs": [],
					"stateMutability": "nonpayable",
					"type": "function"
				},
				{
					"inputs": [],
					"name": "sumFavorite",
					"outputs": [
						{
							"internalType": "uint256",
							"name": "",
							"type": "uint256"
						}
					],
					"stateMutability": "view",
					"type": "function"
				},
				{
					"inputs": [],
					"name": "textExternalFunction",
					"outputs": [
						{
							"internalType": "string",
							"name": "",
							"type": "string"
						}
					],
					"stateMutability": "view",
					"type": "function"
				},
				{
					"inputs": [
						{
							"internalType": "uint256",
							"name": "_newNumber",
							"type": "uint256"
						}
					],
					"name": "updateNumber",
					"outputs": [
						{
							"internalType": "uint256",
							"name": "",
							"type": "uint256"
						}
					],
					"stateMutability": "pure",
					"type": "function"
				}
			],
			"devdoc": {
				"kind": "dev",
				"methods": {},
				"version": 1
			},
			"evm": {
				"assembly": "    /* \"simplestorage.sol/simplestorage.sol\":58:4392  contract SimpleStorage {... */\n  mstore(0x40, 0x80)\n  callvalue\n  dup1\n  iszero\n  tag_1\n  jumpi\n  0x00\n  dup1\n  revert\ntag_1:\n  pop\n  dataSize(sub_0)\n  dup1\n  dataOffset(sub_0)\n  0x00\n  codecopy\n  0x00\n  return\nstop\n\nsub_0: assembly {\n        /* \"simplestorage.sol/simplestorage.sol\":58:4392  contract SimpleStorage {... */\n      mstore(0x40, 0x80)\n      callvalue\n      dup1\n      iszero\n      tag_1\n      jumpi\n      0x00\n      dup1\n      revert\n    tag_1:\n      pop\n      jumpi(tag_2, lt(calldatasize, 0x04))\n      shr(0xe0, calldataload(0x00))\n      dup1\n      0x91c9d389\n      gt\n      tag_22\n      jumpi\n      dup1\n      0xbca353be\n      gt\n      tag_23\n      jumpi\n      dup1\n      0xbca353be\n      eq\n      tag_17\n      jumpi\n      dup1\n      0xc03ece06\n      eq\n      tag_18\n      jumpi\n      dup1\n      0xc19d93fb\n      eq\n      tag_19\n      jumpi\n      dup1\n      0xcb6a33f8\n      eq\n      tag_20\n      jumpi\n      dup1\n      0xe1b3202a\n      eq\n      tag_21\n      jumpi\n      jump(tag_2)\n    tag_23:\n      dup1\n      0x91c9d389\n      eq\n      tag_12\n      jumpi\n      dup1\n      0x9e7a13ad\n      eq\n      tag_13\n      jumpi\n      dup1\n      0xa621d15e\n      eq\n      tag_14\n      jumpi\n      dup1\n      0xa7e1a364\n      eq\n      tag_15\n      jumpi\n      dup1\n      0xb6339418\n      eq\n      tag_16\n      jumpi\n      jump(tag_2)\n    tag_22:\n      dup1\n      0x3a32b549\n      gt\n      tag_24\n      jumpi\n      dup1\n      0x3a32b549\n      eq\n      tag_7\n      jumpi\n      dup1\n      0x43aac8bb\n      eq\n      tag_8\n      jumpi\n      dup1\n      0x55987940\n      eq\n      tag_9\n      jumpi\n      dup1\n      0x8701f8ca\n      eq\n      tag_10\n      jumpi\n      dup1\n      0x8fda356d\n      eq\n      tag_11\n      jumpi\n      jump(tag_2)\n    tag_24:\n      dup1\n      0x03a43009\n      eq\n      tag_3\n      jumpi\n      dup1\n      0x1db05a88\n      eq\n      tag_4\n      jumpi\n      dup1\n      0x22f3e2d4\n      eq\n      tag_5\n      jumpi\n      dup1\n      0x29cd1d96\n      eq\n      tag_6\n      jumpi\n    tag_2:\n      0x00\n      dup1\n      revert\n        /* \"simplestorage.sol/simplestorage.sol\":594:648  mapping(string => uint256) public nameTofavoriteNumber */\n    tag_3:\n      tag_25\n      0x04\n      dup1\n      calldatasize\n      sub\n      dup2\n      add\n      swap1\n      tag_26\n      swap2\n      swap1\n      tag_27\n      jump\t// in\n    tag_26:\n      tag_28\n      jump\t// in\n    tag_25:\n      mload(0x40)\n      tag_29\n      swap2\n      swap1\n      tag_30\n      jump\t// in\n    tag_29:\n      mload(0x40)\n      dup1\n      swap2\n      sub\n      swap1\n      return\n        /* \"simplestorage.sol/simplestorage.sol\":3800:4012  function updateNumber(uint256 _newNumber) public pure returns (uint256) {... */\n    tag_4:\n      tag_31\n      0x04\n      dup1\n      calldatasize\n      sub\n      dup2\n      add\n      swap1\n      tag_32\n      swap2\n      swap1\n      tag_33\n      jump\t// in\n    tag_32:\n      tag_34\n      jump\t// in\n    tag_31:\n      mload(0x40)\n      tag_35\n      swap2\n      swap1\n      tag_30\n      jump\t// in\n    tag_35:\n      mload(0x40)\n      dup1\n      swap2\n      sub\n      swap1\n      return\n        /* \"simplestorage.sol/simplestorage.sol\":3314:3414  function isActive() public view returns (bool) {... */\n    tag_5:\n      tag_36\n      tag_37\n      jump\t// in\n    tag_36:\n      mload(0x40)\n      tag_38\n      swap2\n      swap1\n      tag_39\n      jump\t// in\n    tag_38:\n      mload(0x40)\n      dup1\n      swap2\n      sub\n      swap1\n      return\n        /* \"simplestorage.sol/simplestorage.sol\":161:193  uint256[] public favoriteNumbers */\n    tag_6:\n      tag_40\n      0x04\n      dup1\n      calldatasize\n      sub\n      dup2\n      add\n      swap1\n      tag_41\n      swap2\n      swap1\n      tag_33\n      jump\t// in\n    tag_41:\n      tag_42\n      jump\t// in\n    tag_40:\n      mload(0x40)\n      tag_43\n      swap2\n      swap1\n      tag_30\n      jump\t// in\n    tag_43:\n      mload(0x40)\n      dup1\n      swap2\n      sub\n      swap1\n      return\n        /* \"simplestorage.sol/simplestorage.sol\":2398:2577  function externalFunction() external pure returns (string memory) {... */\n    tag_7:\n      tag_44\n      tag_45\n      jump\t// in\n    tag_44:\n      mload(0x40)\n      tag_46\n      swap2\n      swap1\n      tag_47\n      jump\t// in\n    tag_46:\n      mload(0x40)\n      dup1\n      swap2\n      sub\n      swap1\n      return\n        /* \"simplestorage.sol/simplestorage.sol\":2583:2765  function textExternalFunction() public view returns (string memory) {... */\n    tag_8:\n      tag_48\n      tag_49\n      jump\t// in\n    tag_48:\n      mload(0x40)\n      tag_50\n      swap2\n      swap1\n      tag_47\n      jump\t// in\n    tag_50:\n      mload(0x40)\n      dup1\n      swap2\n      sub\n      swap1\n      return\n        /* \"simplestorage.sol/simplestorage.sol\":1631:1824  function sumFavorite() public view returns (uint256) {... */\n    tag_9:\n      tag_51\n      tag_52\n      jump\t// in\n    tag_51:\n      mload(0x40)\n      tag_53\n      swap2\n      swap1\n      tag_30\n      jump\t// in\n    tag_53:\n      mload(0x40)\n      dup1\n      swap2\n      sub\n      swap1\n      return\n        /* \"simplestorage.sol/simplestorage.sol\":2227:2392  function callInternalFunction() public pure returns (string memory) {... */\n    tag_10:\n      tag_54\n      tag_55\n      jump\t// in\n    tag_54:\n      mload(0x40)\n      tag_56\n      swap2\n      swap1\n      tag_47\n      jump\t// in\n    tag_56:\n      mload(0x40)\n      dup1\n      swap2\n      sub\n      swap1\n      return\n        /* \"simplestorage.sol/simplestorage.sol\":3138:3218  function activateContract() public {... */\n    tag_11:\n      tag_57\n      tag_58\n      jump\t// in\n    tag_57:\n      stop\n        /* \"simplestorage.sol/simplestorage.sol\":4063:4390  function ContractStateString(string calldata _inputString)... */\n    tag_12:\n      tag_59\n      0x04\n      dup1\n      calldatasize\n      sub\n      dup2\n      add\n      swap1\n      tag_60\n      swap2\n      swap1\n      tag_61\n      jump\t// in\n    tag_60:\n      tag_62\n      jump\t// in\n    tag_59:\n      mload(0x40)\n      tag_63\n      swap2\n      swap1\n      tag_47\n      jump\t// in\n    tag_63:\n      mload(0x40)\n      dup1\n      swap2\n      sub\n      swap1\n      return\n        /* \"simplestorage.sol/simplestorage.sol\":441:463  Person[] public people */\n    tag_13:\n      tag_64\n      0x04\n      dup1\n      calldatasize\n      sub\n      dup2\n      add\n      swap1\n      tag_65\n      swap2\n      swap1\n      tag_33\n      jump\t// in\n    tag_65:\n      tag_66\n      jump\t// in\n    tag_64:\n      mload(0x40)\n      tag_67\n      swap3\n      swap2\n      swap1\n      tag_68\n      jump\t// in\n    tag_67:\n      mload(0x40)\n      dup1\n      swap2\n      sub\n      swap1\n      return\n        /* \"simplestorage.sol/simplestorage.sol\":1206:1303  function getFavoriteNumber() public view returns (uint256) {... */\n    tag_14:\n      tag_69\n      tag_70\n      jump\t// in\n    tag_69:\n      mload(0x40)\n      tag_71\n      swap2\n      swap1\n      tag_30\n      jump\t// in\n    tag_71:\n      mload(0x40)\n      dup1\n      swap2\n      sub\n      swap1\n      return\n        /* \"simplestorage.sol/simplestorage.sol\":2771:2868  function addFavoriteNumber(uint256 _number) public {... */\n    tag_15:\n      tag_72\n      0x04\n      dup1\n      calldatasize\n      sub\n      dup2\n      add\n      swap1\n      tag_73\n      swap2\n      swap1\n      tag_33\n      jump\t// in\n    tag_73:\n      tag_74\n      jump\t// in\n    tag_72:\n      stop\n        /* \"simplestorage.sol/simplestorage.sol\":1098:1200  function storeNumber(uint256 _favoriteNumber) public {... */\n    tag_16:\n      tag_75\n      0x04\n      dup1\n      calldatasize\n      sub\n      dup2\n      add\n      swap1\n      tag_76\n      swap2\n      swap1\n      tag_33\n      jump\t// in\n    tag_76:\n      tag_77\n      jump\t// in\n    tag_75:\n      stop\n        /* \"simplestorage.sol/simplestorage.sol\":3224:3308  function deactivateContract() public {... */\n    tag_17:\n      tag_78\n      tag_79\n      jump\t// in\n    tag_78:\n      stop\n        /* \"simplestorage.sol/simplestorage.sol\":3626:3751  function storeFavoriteNumber(uint256 _favoriteNumber) public {... */\n    tag_18:\n      tag_80\n      0x04\n      dup1\n      calldatasize\n      sub\n      dup2\n      add\n      swap1\n      tag_81\n      swap2\n      swap1\n      tag_33\n      jump\t// in\n    tag_81:\n      tag_82\n      jump\t// in\n    tag_80:\n      stop\n        /* \"simplestorage.sol/simplestorage.sol\":953:979  ContractState public state */\n    tag_19:\n      tag_83\n      tag_84\n      jump\t// in\n    tag_83:\n      mload(0x40)\n      tag_85\n      swap2\n      swap1\n      tag_86\n      jump\t// in\n    tag_85:\n      mload(0x40)\n      dup1\n      swap2\n      sub\n      swap1\n      return\n        /* \"simplestorage.sol/simplestorage.sol\":1309:1513  function isGreaterThan(uint256 _compareValue) public view returns (bool) {... */\n    tag_20:\n      tag_87\n      0x04\n      dup1\n      calldatasize\n      sub\n      dup2\n      add\n      swap1\n      tag_88\n      swap2\n      swap1\n      tag_33\n      jump\t// in\n    tag_88:\n      tag_89\n      jump\t// in\n    tag_87:\n      mload(0x40)\n      tag_90\n      swap2\n      swap1\n      tag_39\n      jump\t// in\n    tag_90:\n      mload(0x40)\n      dup1\n      swap2\n      sub\n      swap1\n      return\n        /* \"simplestorage.sol/simplestorage.sol\":3454:3588  function addperson(string memory _name, uint256 _favoriteNumber) public {... */\n    tag_21:\n      tag_91\n      0x04\n      dup1\n      calldatasize\n      sub\n      dup2\n      add\n      swap1\n      tag_92\n      swap2\n      swap1\n      tag_93\n      jump\t// in\n    tag_92:\n      tag_94\n      jump\t// in\n    tag_91:\n      stop\n        /* \"simplestorage.sol/simplestorage.sol\":594:648  mapping(string => uint256) public nameTofavoriteNumber */\n    tag_28:\n      0x03\n      dup2\n      dup1\n      mload\n      0x20\n      dup2\n      add\n      dup3\n      add\n      dup1\n      mload\n      dup5\n      dup3\n      mstore\n      0x20\n      dup4\n      add\n      0x20\n      dup6\n      add\n      keccak256\n      dup2\n      dup4\n      mstore\n      dup1\n      swap6\n      pop\n      pop\n      pop\n      pop\n      pop\n      pop\n      0x00\n      swap2\n      pop\n      swap1\n      pop\n      sload\n      dup2\n      jump\t// out\n        /* \"simplestorage.sol/simplestorage.sol\":3800:4012  function updateNumber(uint256 _newNumber) public pure returns (uint256) {... */\n    tag_34:\n        /* \"simplestorage.sol/simplestorage.sol\":3863:3870  uint256 */\n      0x00\n        /* \"simplestorage.sol/simplestorage.sol\":3943:3961  uint256 tempNumber */\n      dup1\n        /* \"simplestorage.sol/simplestorage.sol\":3977:3978  5 */\n      0x05\n        /* \"simplestorage.sol/simplestorage.sol\":3964:3974  _newNumber */\n      dup4\n        /* \"simplestorage.sol/simplestorage.sol\":3964:3978  _newNumber + 5 */\n      tag_96\n      swap2\n      swap1\n      tag_97\n      jump\t// in\n    tag_96:\n        /* \"simplestorage.sol/simplestorage.sol\":3943:3978  uint256 tempNumber = _newNumber + 5 */\n      swap1\n      pop\n        /* \"simplestorage.sol/simplestorage.sol\":3995:4005  tempNumber */\n      dup1\n        /* \"simplestorage.sol/simplestorage.sol\":3988:4005  return tempNumber */\n      swap2\n      pop\n      pop\n        /* \"simplestorage.sol/simplestorage.sol\":3800:4012  function updateNumber(uint256 _newNumber) public pure returns (uint256) {... */\n      swap2\n      swap1\n      pop\n      jump\t// out\n        /* \"simplestorage.sol/simplestorage.sol\":3314:3414  function isActive() public view returns (bool) {... */\n    tag_37:\n        /* \"simplestorage.sol/simplestorage.sol\":3355:3359  bool */\n      0x00\n        /* \"simplestorage.sol/simplestorage.sol\":3387:3407  ContractState.Active */\n      dup1\n        /* \"simplestorage.sol/simplestorage.sol\":3378:3407  state == ContractState.Active */\n      0x01\n      dup2\n      gt\n      iszero\n      tag_99\n      jumpi\n      tag_100\n      tag_101\n      jump\t// in\n    tag_100:\n    tag_99:\n        /* \"simplestorage.sol/simplestorage.sol\":3378:3383  state */\n      0x04\n      0x00\n      swap1\n      sload\n      swap1\n      0x0100\n      exp\n      swap1\n      div\n      0xff\n      and\n        /* \"simplestorage.sol/simplestorage.sol\":3378:3407  state == ContractState.Active */\n      0x01\n      dup2\n      gt\n      iszero\n      tag_102\n      jumpi\n      tag_103\n      tag_101\n      jump\t// in\n    tag_103:\n    tag_102:\n      eq\n        /* \"simplestorage.sol/simplestorage.sol\":3371:3407  return state == ContractState.Active */\n      swap1\n      pop\n        /* \"simplestorage.sol/simplestorage.sol\":3314:3414  function isActive() public view returns (bool) {... */\n      swap1\n      jump\t// out\n        /* \"simplestorage.sol/simplestorage.sol\":161:193  uint256[] public favoriteNumbers */\n    tag_42:\n      0x01\n      dup2\n      dup2\n      sload\n      dup2\n      lt\n      tag_104\n      jumpi\n      0x00\n      dup1\n      revert\n    tag_104:\n      swap1\n      0x00\n      mstore\n      keccak256(0x00, 0x20)\n      add\n      0x00\n      swap2\n      pop\n      swap1\n      pop\n      sload\n      dup2\n      jump\t// out\n        /* \"simplestorage.sol/simplestorage.sol\":2398:2577  function externalFunction() external pure returns (string memory) {... */\n    tag_45:\n        /* \"simplestorage.sol/simplestorage.sol\":2449:2462  string memory */\n      0x60\n        /* \"simplestorage.sol/simplestorage.sol\":2474:2511  return \"This is an external function\" */\n      mload(0x40)\n      dup1\n      0x40\n      add\n      0x40\n      mstore\n      dup1\n      0x1c\n      dup2\n      mstore\n      0x20\n      add\n      0x5468697320697320616e2065787465726e616c2066756e6374696f6e00000000\n      dup2\n      mstore\n      pop\n      swap1\n      pop\n        /* \"simplestorage.sol/simplestorage.sol\":2398:2577  function externalFunction() external pure returns (string memory) {... */\n      swap1\n      jump\t// out\n        /* \"simplestorage.sol/simplestorage.sol\":2583:2765  function textExternalFunction() public view returns (string memory) {... */\n    tag_49:\n        /* \"simplestorage.sol/simplestorage.sol\":2636:2649  string memory */\n      0x60\n        /* \"simplestorage.sol/simplestorage.sol\":2668:2672  this */\n      address\n        /* \"simplestorage.sol/simplestorage.sol\":2668:2693  this.textExternalFunction */\n      0xffffffffffffffffffffffffffffffffffffffff\n      and\n      0x43aac8bb\n        /* \"simplestorage.sol/simplestorage.sol\":2668:2695  this.textExternalFunction() */\n      mload(0x40)\n      dup2\n      0xffffffff\n      and\n      0xe0\n      shl\n      dup2\n      mstore\n      0x04\n      add\n      0x00\n      mload(0x40)\n      dup1\n      dup4\n      sub\n      dup2\n      dup7\n      gas\n      staticcall\n      iszero\n      dup1\n      iszero\n      tag_109\n      jumpi\n      returndatasize\n      0x00\n      dup1\n      returndatacopy\n      revert(0x00, returndatasize)\n    tag_109:\n      pop\n      pop\n      pop\n      pop\n      mload(0x40)\n      returndatasize\n      0x00\n      dup3\n      returndatacopy\n      returndatasize\n      not(0x1f)\n      0x1f\n      dup3\n      add\n      and\n      dup3\n      add\n      dup1\n      0x40\n      mstore\n      pop\n      dup2\n      add\n      swap1\n      tag_110\n      swap2\n      swap1\n      tag_111\n      jump\t// in\n    tag_110:\n        /* \"simplestorage.sol/simplestorage.sol\":2661:2695  return this.textExternalFunction() */\n      swap1\n      pop\n        /* \"simplestorage.sol/simplestorage.sol\":2583:2765  function textExternalFunction() public view returns (string memory) {... */\n      swap1\n      jump\t// out\n        /* \"simplestorage.sol/simplestorage.sol\":1631:1824  function sumFavorite() public view returns (uint256) {... */\n    tag_52:\n        /* \"simplestorage.sol/simplestorage.sol\":1675:1682  uint256 */\n      0x00\n        /* \"simplestorage.sol/simplestorage.sol\":1694:1705  uint256 sum */\n      dup1\n        /* \"simplestorage.sol/simplestorage.sol\":1708:1709  0 */\n      0x00\n        /* \"simplestorage.sol/simplestorage.sol\":1694:1709  uint256 sum = 0 */\n      swap1\n      pop\n        /* \"simplestorage.sol/simplestorage.sol\":1724:1733  uint256 i */\n      0x00\n        /* \"simplestorage.sol/simplestorage.sol\":1736:1737  1 */\n      0x01\n        /* \"simplestorage.sol/simplestorage.sol\":1724:1737  uint256 i = 1 */\n      swap1\n      pop\n        /* \"simplestorage.sol/simplestorage.sol\":1719:1798  for (uint256 i = 1; i <= favoriteNumber; i++) {... */\n    tag_113:\n        /* \"simplestorage.sol/simplestorage.sol\":1744:1758  favoriteNumber */\n      sload(0x00)\n        /* \"simplestorage.sol/simplestorage.sol\":1739:1740  i */\n      dup2\n        /* \"simplestorage.sol/simplestorage.sol\":1739:1758  i <= favoriteNumber */\n      gt\n        /* \"simplestorage.sol/simplestorage.sol\":1719:1798  for (uint256 i = 1; i <= favoriteNumber; i++) {... */\n      tag_114\n      jumpi\n        /* \"simplestorage.sol/simplestorage.sol\":1786:1787  i */\n      dup1\n        /* \"simplestorage.sol/simplestorage.sol\":1779:1787  sum += i */\n      dup3\n      tag_116\n      swap2\n      swap1\n      tag_97\n      jump\t// in\n    tag_116:\n      swap2\n      pop\n        /* \"simplestorage.sol/simplestorage.sol\":1760:1763  i++ */\n      dup1\n      dup1\n      tag_117\n      swap1\n      tag_118\n      jump\t// in\n    tag_117:\n      swap2\n      pop\n      pop\n        /* \"simplestorage.sol/simplestorage.sol\":1719:1798  for (uint256 i = 1; i <= favoriteNumber; i++) {... */\n      jump(tag_113)\n    tag_114:\n      pop\n        /* \"simplestorage.sol/simplestorage.sol\":1814:1817  sum */\n      dup1\n        /* \"simplestorage.sol/simplestorage.sol\":1807:1817  return sum */\n      swap2\n      pop\n      pop\n        /* \"simplestorage.sol/simplestorage.sol\":1631:1824  function sumFavorite() public view returns (uint256) {... */\n      swap1\n      jump\t// out\n        /* \"simplestorage.sol/simplestorage.sol\":2227:2392  function callInternalFunction() public pure returns (string memory) {... */\n    tag_55:\n        /* \"simplestorage.sol/simplestorage.sol\":2280:2293  string memory */\n      0x60\n        /* \"simplestorage.sol/simplestorage.sol\":2312:2330  internalFunction() */\n      tag_120\n        /* \"simplestorage.sol/simplestorage.sol\":2312:2328  internalFunction */\n      tag_121\n        /* \"simplestorage.sol/simplestorage.sol\":2312:2330  internalFunction() */\n      jump\t// in\n    tag_120:\n        /* \"simplestorage.sol/simplestorage.sol\":2305:2330  return internalFunction() */\n      swap1\n      pop\n        /* \"simplestorage.sol/simplestorage.sol\":2227:2392  function callInternalFunction() public pure returns (string memory) {... */\n      swap1\n      jump\t// out\n        /* \"simplestorage.sol/simplestorage.sol\":3138:3218  function activateContract() public {... */\n    tag_58:\n        /* \"simplestorage.sol/simplestorage.sol\":3191:3211  ContractState.Active */\n      0x00\n        /* \"simplestorage.sol/simplestorage.sol\":3183:3188  state */\n      0x04\n      0x00\n        /* \"simplestorage.sol/simplestorage.sol\":3183:3211  state = ContractState.Active */\n      0x0100\n      exp\n      dup2\n      sload\n      dup2\n      0xff\n      mul\n      not\n      and\n      swap1\n      dup4\n      0x01\n      dup2\n      gt\n      iszero\n      tag_123\n      jumpi\n      tag_124\n      tag_101\n      jump\t// in\n    tag_124:\n    tag_123:\n      mul\n      or\n      swap1\n      sstore\n      pop\n        /* \"simplestorage.sol/simplestorage.sol\":3138:3218  function activateContract() public {... */\n      jump\t// out\n        /* \"simplestorage.sol/simplestorage.sol\":4063:4390  function ContractStateString(string calldata _inputString)... */\n    tag_62:\n        /* \"simplestorage.sol/simplestorage.sol\":4167:4180  string memory */\n      0x60\n        /* \"simplestorage.sol/simplestorage.sol\":4256:4279  string memory newString */\n      0x00\n        /* \"simplestorage.sol/simplestorage.sol\":4319:4331  _inputString */\n      dup4\n      dup4\n        /* \"simplestorage.sol/simplestorage.sol\":4302:4347  abi.encodePacked(_inputString, \"is awesome!\") */\n      add(0x20, mload(0x40))\n      tag_126\n      swap3\n      swap2\n      swap1\n      tag_127\n      jump\t// in\n    tag_126:\n      mload(0x40)\n      0x20\n      dup2\n      dup4\n      sub\n      sub\n      dup2\n      mstore\n      swap1\n      0x40\n      mstore\n        /* \"simplestorage.sol/simplestorage.sol\":4256:4357  string memory newString = string(... */\n      swap1\n      pop\n        /* \"simplestorage.sol/simplestorage.sol\":4374:4383  newString */\n      dup1\n        /* \"simplestorage.sol/simplestorage.sol\":4367:4383  return newString */\n      swap2\n      pop\n      pop\n        /* \"simplestorage.sol/simplestorage.sol\":4063:4390  function ContractStateString(string calldata _inputString)... */\n      swap3\n      swap2\n      pop\n      pop\n      jump\t// out\n        /* \"simplestorage.sol/simplestorage.sol\":441:463  Person[] public people */\n    tag_66:\n      0x02\n      dup2\n      dup2\n      sload\n      dup2\n      lt\n      tag_128\n      jumpi\n      0x00\n      dup1\n      revert\n    tag_128:\n      swap1\n      0x00\n      mstore\n      keccak256(0x00, 0x20)\n      swap1\n      0x02\n      mul\n      add\n      0x00\n      swap2\n      pop\n      swap1\n      pop\n      dup1\n      0x00\n      add\n      dup1\n      sload\n      tag_130\n      swap1\n      tag_131\n      jump\t// in\n    tag_130:\n      dup1\n      0x1f\n      add\n      0x20\n      dup1\n      swap2\n      div\n      mul\n      0x20\n      add\n      mload(0x40)\n      swap1\n      dup2\n      add\n      0x40\n      mstore\n      dup1\n      swap3\n      swap2\n      swap1\n      dup2\n      dup2\n      mstore\n      0x20\n      add\n      dup3\n      dup1\n      sload\n      tag_132\n      swap1\n      tag_131\n      jump\t// in\n    tag_132:\n      dup1\n      iszero\n      tag_133\n      jumpi\n      dup1\n      0x1f\n      lt\n      tag_134\n      jumpi\n      0x0100\n      dup1\n      dup4\n      sload\n      div\n      mul\n      dup4\n      mstore\n      swap2\n      0x20\n      add\n      swap2\n      jump(tag_133)\n    tag_134:\n      dup3\n      add\n      swap2\n      swap1\n      0x00\n      mstore\n      keccak256(0x00, 0x20)\n      swap1\n    tag_135:\n      dup2\n      sload\n      dup2\n      mstore\n      swap1\n      0x01\n      add\n      swap1\n      0x20\n      add\n      dup1\n      dup4\n      gt\n      tag_135\n      jumpi\n      dup3\n      swap1\n      sub\n      0x1f\n      and\n      dup3\n      add\n      swap2\n    tag_133:\n      pop\n      pop\n      pop\n      pop\n      pop\n      swap1\n      dup1\n      0x01\n      add\n      sload\n      swap1\n      pop\n      dup3\n      jump\t// out\n        /* \"simplestorage.sol/simplestorage.sol\":1206:1303  function getFavoriteNumber() public view returns (uint256) {... */\n    tag_70:\n        /* \"simplestorage.sol/simplestorage.sol\":1256:1263  uint256 */\n      0x00\n        /* \"simplestorage.sol/simplestorage.sol\":1282:1296  favoriteNumber */\n      dup1\n      sload\n        /* \"simplestorage.sol/simplestorage.sol\":1275:1296  return favoriteNumber */\n      swap1\n      pop\n        /* \"simplestorage.sol/simplestorage.sol\":1206:1303  function getFavoriteNumber() public view returns (uint256) {... */\n      swap1\n      jump\t// out\n        /* \"simplestorage.sol/simplestorage.sol\":2771:2868  function addFavoriteNumber(uint256 _number) public {... */\n    tag_74:\n        /* \"simplestorage.sol/simplestorage.sol\":2832:2847  favoriteNumbers */\n      0x01\n        /* \"simplestorage.sol/simplestorage.sol\":2853:2860  _number */\n      dup2\n        /* \"simplestorage.sol/simplestorage.sol\":2832:2861  favoriteNumbers.push(_number) */\n      swap1\n      dup1\n      0x01\n      dup2\n      sload\n      add\n      dup1\n      dup3\n      sstore\n      dup1\n      swap2\n      pop\n      pop\n      0x01\n      swap1\n      sub\n      swap1\n      0x00\n      mstore\n      keccak256(0x00, 0x20)\n      add\n      0x00\n      swap1\n      swap2\n      swap1\n      swap2\n      swap1\n      swap2\n      pop\n      sstore\n        /* \"simplestorage.sol/simplestorage.sol\":2771:2868  function addFavoriteNumber(uint256 _number) public {... */\n      pop\n      jump\t// out\n        /* \"simplestorage.sol/simplestorage.sol\":1098:1200  function storeNumber(uint256 _favoriteNumber) public {... */\n    tag_77:\n        /* \"simplestorage.sol/simplestorage.sol\":1178:1193  _favoriteNumber */\n      dup1\n        /* \"simplestorage.sol/simplestorage.sol\":1161:1175  favoriteNumber */\n      0x00\n        /* \"simplestorage.sol/simplestorage.sol\":1161:1193  favoriteNumber = _favoriteNumber */\n      dup2\n      swap1\n      sstore\n      pop\n        /* \"simplestorage.sol/simplestorage.sol\":1098:1200  function storeNumber(uint256 _favoriteNumber) public {... */\n      pop\n      jump\t// out\n        /* \"simplestorage.sol/simplestorage.sol\":3224:3308  function deactivateContract() public {... */\n    tag_79:\n        /* \"simplestorage.sol/simplestorage.sol\":3279:3301  ContractState.Inactive */\n      0x01\n        /* \"simplestorage.sol/simplestorage.sol\":3271:3276  state */\n      0x04\n      0x00\n        /* \"simplestorage.sol/simplestorage.sol\":3271:3301  state = ContractState.Inactive */\n      0x0100\n      exp\n      dup2\n      sload\n      dup2\n      0xff\n      mul\n      not\n      and\n      swap1\n      dup4\n      0x01\n      dup2\n      gt\n      iszero\n      tag_141\n      jumpi\n      tag_142\n      tag_101\n      jump\t// in\n    tag_142:\n    tag_141:\n      mul\n      or\n      swap1\n      sstore\n      pop\n        /* \"simplestorage.sol/simplestorage.sol\":3224:3308  function deactivateContract() public {... */\n      jump\t// out\n        /* \"simplestorage.sol/simplestorage.sol\":3626:3751  function storeFavoriteNumber(uint256 _favoriteNumber) public {... */\n    tag_82:\n        /* \"simplestorage.sol/simplestorage.sol\":3702:3744  NumberUpdated(_favoriteNumber, msg.sender) */\n      0xe5f28171f43fc54876f02589c23cc70d19e06f868cc3811c456e8c61c296a27e\n        /* \"simplestorage.sol/simplestorage.sol\":3716:3731  _favoriteNumber */\n      dup2\n        /* \"simplestorage.sol/simplestorage.sol\":3733:3743  msg.sender */\n      caller\n        /* \"simplestorage.sol/simplestorage.sol\":3702:3744  NumberUpdated(_favoriteNumber, msg.sender) */\n      mload(0x40)\n      tag_144\n      swap3\n      swap2\n      swap1\n      tag_145\n      jump\t// in\n    tag_144:\n      mload(0x40)\n      dup1\n      swap2\n      sub\n      swap1\n      log1\n        /* \"simplestorage.sol/simplestorage.sol\":3626:3751  function storeFavoriteNumber(uint256 _favoriteNumber) public {... */\n      pop\n      jump\t// out\n        /* \"simplestorage.sol/simplestorage.sol\":953:979  ContractState public state */\n    tag_84:\n      0x04\n      0x00\n      swap1\n      sload\n      swap1\n      0x0100\n      exp\n      swap1\n      div\n      0xff\n      and\n      dup2\n      jump\t// out\n        /* \"simplestorage.sol/simplestorage.sol\":1309:1513  function isGreaterThan(uint256 _compareValue) public view returns (bool) {... */\n    tag_89:\n        /* \"simplestorage.sol/simplestorage.sol\":1376:1380  bool */\n      0x00\n        /* \"simplestorage.sol/simplestorage.sol\":1413:1426  _compareValue */\n      dup2\n        /* \"simplestorage.sol/simplestorage.sol\":1396:1410  favoriteNumber */\n      sload(0x00)\n        /* \"simplestorage.sol/simplestorage.sol\":1396:1426  favoriteNumber > _compareValue */\n      gt\n        /* \"simplestorage.sol/simplestorage.sol\":1392:1507  if (favoriteNumber > _compareValue) {... */\n      iszero\n      tag_147\n      jumpi\n        /* \"simplestorage.sol/simplestorage.sol\":1449:1453  true */\n      0x01\n        /* \"simplestorage.sol/simplestorage.sol\":1442:1453  return true */\n      swap1\n      pop\n      jump(tag_146)\n        /* \"simplestorage.sol/simplestorage.sol\":1392:1507  if (favoriteNumber > _compareValue) {... */\n    tag_147:\n        /* \"simplestorage.sol/simplestorage.sol\":1491:1496  false */\n      0x00\n        /* \"simplestorage.sol/simplestorage.sol\":1484:1496  return false */\n      swap1\n      pop\n        /* \"simplestorage.sol/simplestorage.sol\":1309:1513  function isGreaterThan(uint256 _compareValue) public view returns (bool) {... */\n    tag_146:\n      swap2\n      swap1\n      pop\n      jump\t// out\n        /* \"simplestorage.sol/simplestorage.sol\":3454:3588  function addperson(string memory _name, uint256 _favoriteNumber) public {... */\n    tag_94:\n        /* \"simplestorage.sol/simplestorage.sol\":3566:3581  _favoriteNumber */\n      dup1\n        /* \"simplestorage.sol/simplestorage.sol\":3536:3556  nameTofavoriteNumber */\n      0x03\n        /* \"simplestorage.sol/simplestorage.sol\":3557:3562  _name */\n      dup4\n        /* \"simplestorage.sol/simplestorage.sol\":3536:3563  nameTofavoriteNumber[_name] */\n      mload(0x40)\n      tag_150\n      swap2\n      swap1\n      tag_151\n      jump\t// in\n    tag_150:\n      swap1\n      dup2\n      mstore\n      0x20\n      add\n      mload(0x40)\n      dup1\n      swap2\n      sub\n      swap1\n      keccak256\n        /* \"simplestorage.sol/simplestorage.sol\":3536:3581  nameTofavoriteNumber[_name] = _favoriteNumber */\n      dup2\n      swap1\n      sstore\n      pop\n        /* \"simplestorage.sol/simplestorage.sol\":3454:3588  function addperson(string memory _name, uint256 _favoriteNumber) public {... */\n      pop\n      pop\n      jump\t// out\n        /* \"simplestorage.sol/simplestorage.sol\":1958:2149  function internalFunction() internal pure returns (string memory) {... */\n    tag_121:\n        /* \"simplestorage.sol/simplestorage.sol\":2009:2022  string memory */\n      0x60\n        /* \"simplestorage.sol/simplestorage.sol\":2034:2071  return \"This is an internal function\" */\n      mload(0x40)\n      dup1\n      0x40\n      add\n      0x40\n      mstore\n      dup1\n      0x1c\n      dup2\n      mstore\n      0x20\n      add\n      0x5468697320697320616e20696e7465726e616c2066756e6374696f6e00000000\n      dup2\n      mstore\n      pop\n      swap1\n      pop\n        /* \"simplestorage.sol/simplestorage.sol\":1958:2149  function internalFunction() internal pure returns (string memory) {... */\n      swap1\n      jump\t// out\n        /* \"#utility.yul\":7:82   */\n    tag_153:\n        /* \"#utility.yul\":40:46   */\n      0x00\n        /* \"#utility.yul\":73:75   */\n      0x40\n        /* \"#utility.yul\":67:76   */\n      mload\n        /* \"#utility.yul\":57:76   */\n      swap1\n      pop\n        /* \"#utility.yul\":7:82   */\n      swap1\n      jump\t// out\n        /* \"#utility.yul\":88:205   */\n    tag_154:\n        /* \"#utility.yul\":197:198   */\n      0x00\n        /* \"#utility.yul\":194:195   */\n      dup1\n        /* \"#utility.yul\":187:199   */\n      revert\n        /* \"#utility.yul\":211:328   */\n    tag_155:\n        /* \"#utility.yul\":320:321   */\n      0x00\n        /* \"#utility.yul\":317:318   */\n      dup1\n        /* \"#utility.yul\":310:322   */\n      revert\n        /* \"#utility.yul\":334:451   */\n    tag_156:\n        /* \"#utility.yul\":443:444   */\n      0x00\n        /* \"#utility.yul\":440:441   */\n      dup1\n        /* \"#utility.yul\":433:445   */\n      revert\n        /* \"#utility.yul\":457:574   */\n    tag_157:\n        /* \"#utility.yul\":566:567   */\n      0x00\n        /* \"#utility.yul\":563:564   */\n      dup1\n        /* \"#utility.yul\":556:568   */\n      revert\n        /* \"#utility.yul\":580:682   */\n    tag_158:\n        /* \"#utility.yul\":621:627   */\n      0x00\n        /* \"#utility.yul\":672:674   */\n      0x1f\n        /* \"#utility.yul\":668:675   */\n      not\n        /* \"#utility.yul\":663:665   */\n      0x1f\n        /* \"#utility.yul\":656:661   */\n      dup4\n        /* \"#utility.yul\":652:666   */\n      add\n        /* \"#utility.yul\":648:676   */\n      and\n        /* \"#utility.yul\":638:676   */\n      swap1\n      pop\n        /* \"#utility.yul\":580:682   */\n      swap2\n      swap1\n      pop\n      jump\t// out\n        /* \"#utility.yul\":688:868   */\n    tag_159:\n        /* \"#utility.yul\":736:813   */\n      0x4e487b7100000000000000000000000000000000000000000000000000000000\n        /* \"#utility.yul\":733:734   */\n      0x00\n        /* \"#utility.yul\":726:814   */\n      mstore\n        /* \"#utility.yul\":833:837   */\n      0x41\n        /* \"#utility.yul\":830:831   */\n      0x04\n        /* \"#utility.yul\":823:838   */\n      mstore\n        /* \"#utility.yul\":857:861   */\n      0x24\n        /* \"#utility.yul\":854:855   */\n      0x00\n        /* \"#utility.yul\":847:862   */\n      revert\n        /* \"#utility.yul\":874:1155   */\n    tag_160:\n        /* \"#utility.yul\":957:984   */\n      tag_204\n        /* \"#utility.yul\":979:983   */\n      dup3\n        /* \"#utility.yul\":957:984   */\n      tag_158\n      jump\t// in\n    tag_204:\n        /* \"#utility.yul\":949:955   */\n      dup2\n        /* \"#utility.yul\":945:985   */\n      add\n        /* \"#utility.yul\":1087:1093   */\n      dup2\n        /* \"#utility.yul\":1075:1085   */\n      dup2\n        /* \"#utility.yul\":1072:1094   */\n      lt\n        /* \"#utility.yul\":1051:1069   */\n      0xffffffffffffffff\n        /* \"#utility.yul\":1039:1049   */\n      dup3\n        /* \"#utility.yul\":1036:1070   */\n      gt\n        /* \"#utility.yul\":1033:1095   */\n      or\n        /* \"#utility.yul\":1030:1118   */\n      iszero\n      tag_205\n      jumpi\n        /* \"#utility.yul\":1098:1116   */\n      tag_206\n      tag_159\n      jump\t// in\n    tag_206:\n        /* \"#utility.yul\":1030:1118   */\n    tag_205:\n        /* \"#utility.yul\":1138:1148   */\n      dup1\n        /* \"#utility.yul\":1134:1136   */\n      0x40\n        /* \"#utility.yul\":1127:1149   */\n      mstore\n        /* \"#utility.yul\":917:1155   */\n      pop\n        /* \"#utility.yul\":874:1155   */\n      pop\n      pop\n      jump\t// out\n        /* \"#utility.yul\":1161:1290   */\n    tag_161:\n        /* \"#utility.yul\":1195:1201   */\n      0x00\n        /* \"#utility.yul\":1222:1242   */\n      tag_208\n      tag_153\n      jump\t// in\n    tag_208:\n        /* \"#utility.yul\":1212:1242   */\n      swap1\n      pop\n        /* \"#utility.yul\":1251:1284   */\n      tag_209\n        /* \"#utility.yul\":1279:1283   */\n      dup3\n        /* \"#utility.yul\":1271:1277   */\n      dup3\n        /* \"#utility.yul\":1251:1284   */\n      tag_160\n      jump\t// in\n    tag_209:\n        /* \"#utility.yul\":1161:1290   */\n      swap2\n      swap1\n      pop\n      jump\t// out\n        /* \"#utility.yul\":1296:1604   */\n    tag_162:\n        /* \"#utility.yul\":1358:1362   */\n      0x00\n        /* \"#utility.yul\":1448:1466   */\n      0xffffffffffffffff\n        /* \"#utility.yul\":1440:1446   */\n      dup3\n        /* \"#utility.yul\":1437:1467   */\n      gt\n        /* \"#utility.yul\":1434:1490   */\n      iszero\n      tag_211\n      jumpi\n        /* \"#utility.yul\":1470:1488   */\n      tag_212\n      tag_159\n      jump\t// in\n    tag_212:\n        /* \"#utility.yul\":1434:1490   */\n    tag_211:\n        /* \"#utility.yul\":1508:1537   */\n      tag_213\n        /* \"#utility.yul\":1530:1536   */\n      dup3\n        /* \"#utility.yul\":1508:1537   */\n      tag_158\n      jump\t// in\n    tag_213:\n        /* \"#utility.yul\":1500:1537   */\n      swap1\n      pop\n        /* \"#utility.yul\":1592:1596   */\n      0x20\n        /* \"#utility.yul\":1586:1590   */\n      dup2\n        /* \"#utility.yul\":1582:1597   */\n      add\n        /* \"#utility.yul\":1574:1597   */\n      swap1\n      pop\n        /* \"#utility.yul\":1296:1604   */\n      swap2\n      swap1\n      pop\n      jump\t// out\n        /* \"#utility.yul\":1610:1758   */\n    tag_163:\n        /* \"#utility.yul\":1708:1714   */\n      dup3\n        /* \"#utility.yul\":1703:1706   */\n      dup2\n        /* \"#utility.yul\":1698:1701   */\n      dup4\n        /* \"#utility.yul\":1685:1715   */\n      calldatacopy\n        /* \"#utility.yul\":1749:1750   */\n      0x00\n        /* \"#utility.yul\":1740:1746   */\n      dup4\n        /* \"#utility.yul\":1735:1738   */\n      dup4\n        /* \"#utility.yul\":1731:1747   */\n      add\n        /* \"#utility.yul\":1724:1751   */\n      mstore\n        /* \"#utility.yul\":1610:1758   */\n      pop\n      pop\n      pop\n      jump\t// out\n        /* \"#utility.yul\":1764:2189   */\n    tag_164:\n        /* \"#utility.yul\":1842:1847   */\n      0x00\n        /* \"#utility.yul\":1867:1933   */\n      tag_216\n        /* \"#utility.yul\":1883:1932   */\n      tag_217\n        /* \"#utility.yul\":1925:1931   */\n      dup5\n        /* \"#utility.yul\":1883:1932   */\n      tag_162\n      jump\t// in\n    tag_217:\n        /* \"#utility.yul\":1867:1933   */\n      tag_161\n      jump\t// in\n    tag_216:\n        /* \"#utility.yul\":1858:1933   */\n      swap1\n      pop\n        /* \"#utility.yul\":1956:1962   */\n      dup3\n        /* \"#utility.yul\":1949:1954   */\n      dup2\n        /* \"#utility.yul\":1942:1963   */\n      mstore\n        /* \"#utility.yul\":1994:1998   */\n      0x20\n        /* \"#utility.yul\":1987:1992   */\n      dup2\n        /* \"#utility.yul\":1983:1999   */\n      add\n        /* \"#utility.yul\":2032:2035   */\n      dup5\n        /* \"#utility.yul\":2023:2029   */\n      dup5\n        /* \"#utility.yul\":2018:2021   */\n      dup5\n        /* \"#utility.yul\":2014:2030   */\n      add\n        /* \"#utility.yul\":2011:2036   */\n      gt\n        /* \"#utility.yul\":2008:2120   */\n      iszero\n      tag_218\n      jumpi\n        /* \"#utility.yul\":2039:2118   */\n      tag_219\n      tag_157\n      jump\t// in\n    tag_219:\n        /* \"#utility.yul\":2008:2120   */\n    tag_218:\n        /* \"#utility.yul\":2129:2183   */\n      tag_220\n        /* \"#utility.yul\":2176:2182   */\n      dup5\n        /* \"#utility.yul\":2171:2174   */\n      dup3\n        /* \"#utility.yul\":2166:2169   */\n      dup6\n        /* \"#utility.yul\":2129:2183   */\n      tag_163\n      jump\t// in\n    tag_220:\n        /* \"#utility.yul\":1848:2189   */\n      pop\n        /* \"#utility.yul\":1764:2189   */\n      swap4\n      swap3\n      pop\n      pop\n      pop\n      jump\t// out\n        /* \"#utility.yul\":2209:2549   */\n    tag_165:\n        /* \"#utility.yul\":2265:2270   */\n      0x00\n        /* \"#utility.yul\":2314:2317   */\n      dup3\n        /* \"#utility.yul\":2307:2311   */\n      0x1f\n        /* \"#utility.yul\":2299:2305   */\n      dup4\n        /* \"#utility.yul\":2295:2312   */\n      add\n        /* \"#utility.yul\":2291:2318   */\n      slt\n        /* \"#utility.yul\":2281:2403   */\n      tag_222\n      jumpi\n        /* \"#utility.yul\":2322:2401   */\n      tag_223\n      tag_156\n      jump\t// in\n    tag_223:\n        /* \"#utility.yul\":2281:2403   */\n    tag_222:\n        /* \"#utility.yul\":2439:2445   */\n      dup2\n        /* \"#utility.yul\":2426:2446   */\n      calldataload\n        /* \"#utility.yul\":2464:2543   */\n      tag_224\n        /* \"#utility.yul\":2539:2542   */\n      dup5\n        /* \"#utility.yul\":2531:2537   */\n      dup3\n        /* \"#utility.yul\":2524:2528   */\n      0x20\n        /* \"#utility.yul\":2516:2522   */\n      dup7\n        /* \"#utility.yul\":2512:2529   */\n      add\n        /* \"#utility.yul\":2464:2543   */\n      tag_164\n      jump\t// in\n    tag_224:\n        /* \"#utility.yul\":2455:2543   */\n      swap2\n      pop\n        /* \"#utility.yul\":2271:2549   */\n      pop\n        /* \"#utility.yul\":2209:2549   */\n      swap3\n      swap2\n      pop\n      pop\n      jump\t// out\n        /* \"#utility.yul\":2555:3064   */\n    tag_27:\n        /* \"#utility.yul\":2624:2630   */\n      0x00\n        /* \"#utility.yul\":2673:2675   */\n      0x20\n        /* \"#utility.yul\":2661:2670   */\n      dup3\n        /* \"#utility.yul\":2652:2659   */\n      dup5\n        /* \"#utility.yul\":2648:2671   */\n      sub\n        /* \"#utility.yul\":2644:2676   */\n      slt\n        /* \"#utility.yul\":2641:2760   */\n      iszero\n      tag_226\n      jumpi\n        /* \"#utility.yul\":2679:2758   */\n      tag_227\n      tag_154\n      jump\t// in\n    tag_227:\n        /* \"#utility.yul\":2641:2760   */\n    tag_226:\n        /* \"#utility.yul\":2827:2828   */\n      0x00\n        /* \"#utility.yul\":2816:2825   */\n      dup3\n        /* \"#utility.yul\":2812:2829   */\n      add\n        /* \"#utility.yul\":2799:2830   */\n      calldataload\n        /* \"#utility.yul\":2857:2875   */\n      0xffffffffffffffff\n        /* \"#utility.yul\":2849:2855   */\n      dup2\n        /* \"#utility.yul\":2846:2876   */\n      gt\n        /* \"#utility.yul\":2843:2960   */\n      iszero\n      tag_228\n      jumpi\n        /* \"#utility.yul\":2879:2958   */\n      tag_229\n      tag_155\n      jump\t// in\n    tag_229:\n        /* \"#utility.yul\":2843:2960   */\n    tag_228:\n        /* \"#utility.yul\":2984:3047   */\n      tag_230\n        /* \"#utility.yul\":3039:3046   */\n      dup5\n        /* \"#utility.yul\":3030:3036   */\n      dup3\n        /* \"#utility.yul\":3019:3028   */\n      dup6\n        /* \"#utility.yul\":3015:3037   */\n      add\n        /* \"#utility.yul\":2984:3047   */\n      tag_165\n      jump\t// in\n    tag_230:\n        /* \"#utility.yul\":2974:3047   */\n      swap2\n      pop\n        /* \"#utility.yul\":2770:3057   */\n      pop\n        /* \"#utility.yul\":2555:3064   */\n      swap3\n      swap2\n      pop\n      pop\n      jump\t// out\n        /* \"#utility.yul\":3070:3147   */\n    tag_166:\n        /* \"#utility.yul\":3107:3114   */\n      0x00\n        /* \"#utility.yul\":3136:3141   */\n      dup2\n        /* \"#utility.yul\":3125:3141   */\n      swap1\n      pop\n        /* \"#utility.yul\":3070:3147   */\n      swap2\n      swap1\n      pop\n      jump\t// out\n        /* \"#utility.yul\":3153:3271   */\n    tag_167:\n        /* \"#utility.yul\":3240:3264   */\n      tag_233\n        /* \"#utility.yul\":3258:3263   */\n      dup2\n        /* \"#utility.yul\":3240:3264   */\n      tag_166\n      jump\t// in\n    tag_233:\n        /* \"#utility.yul\":3235:3238   */\n      dup3\n        /* \"#utility.yul\":3228:3265   */\n      mstore\n        /* \"#utility.yul\":3153:3271   */\n      pop\n      pop\n      jump\t// out\n        /* \"#utility.yul\":3277:3499   */\n    tag_30:\n        /* \"#utility.yul\":3370:3374   */\n      0x00\n        /* \"#utility.yul\":3408:3410   */\n      0x20\n        /* \"#utility.yul\":3397:3406   */\n      dup3\n        /* \"#utility.yul\":3393:3411   */\n      add\n        /* \"#utility.yul\":3385:3411   */\n      swap1\n      pop\n        /* \"#utility.yul\":3421:3492   */\n      tag_235\n        /* \"#utility.yul\":3489:3490   */\n      0x00\n        /* \"#utility.yul\":3478:3487   */\n      dup4\n        /* \"#utility.yul\":3474:3491   */\n      add\n        /* \"#utility.yul\":3465:3471   */\n      dup5\n        /* \"#utility.yul\":3421:3492   */\n      tag_167\n      jump\t// in\n    tag_235:\n        /* \"#utility.yul\":3277:3499   */\n      swap3\n      swap2\n      pop\n      pop\n      jump\t// out\n        /* \"#utility.yul\":3505:3627   */\n    tag_168:\n        /* \"#utility.yul\":3578:3602   */\n      tag_237\n        /* \"#utility.yul\":3596:3601   */\n      dup2\n        /* \"#utility.yul\":3578:3602   */\n      tag_166\n      jump\t// in\n    tag_237:\n        /* \"#utility.yul\":3571:3576   */\n      dup2\n        /* \"#utility.yul\":3568:3603   */\n      eq\n        /* \"#utility.yul\":3558:3621   */\n      tag_238\n      jumpi\n        /* \"#utility.yul\":3617:3618   */\n      0x00\n        /* \"#utility.yul\":3614:3615   */\n      dup1\n        /* \"#utility.yul\":3607:3619   */\n      revert\n        /* \"#utility.yul\":3558:3621   */\n    tag_238:\n        /* \"#utility.yul\":3505:3627   */\n      pop\n      jump\t// out\n        /* \"#utility.yul\":3633:3772   */\n    tag_169:\n        /* \"#utility.yul\":3679:3684   */\n      0x00\n        /* \"#utility.yul\":3717:3723   */\n      dup2\n        /* \"#utility.yul\":3704:3724   */\n      calldataload\n        /* \"#utility.yul\":3695:3724   */\n      swap1\n      pop\n        /* \"#utility.yul\":3733:3766   */\n      tag_240\n        /* \"#utility.yul\":3760:3765   */\n      dup2\n        /* \"#utility.yul\":3733:3766   */\n      tag_168\n      jump\t// in\n    tag_240:\n        /* \"#utility.yul\":3633:3772   */\n      swap3\n      swap2\n      pop\n      pop\n      jump\t// out\n        /* \"#utility.yul\":3778:4107   */\n    tag_33:\n        /* \"#utility.yul\":3837:3843   */\n      0x00\n        /* \"#utility.yul\":3886:3888   */\n      0x20\n        /* \"#utility.yul\":3874:3883   */\n      dup3\n        /* \"#utility.yul\":3865:3872   */\n      dup5\n        /* \"#utility.yul\":3861:3884   */\n      sub\n        /* \"#utility.yul\":3857:3889   */\n      slt\n        /* \"#utility.yul\":3854:3973   */\n      iszero\n      tag_242\n      jumpi\n        /* \"#utility.yul\":3892:3971   */\n      tag_243\n      tag_154\n      jump\t// in\n    tag_243:\n        /* \"#utility.yul\":3854:3973   */\n    tag_242:\n        /* \"#utility.yul\":4012:4013   */\n      0x00\n        /* \"#utility.yul\":4037:4090   */\n      tag_244\n        /* \"#utility.yul\":4082:4089   */\n      dup5\n        /* \"#utility.yul\":4073:4079   */\n      dup3\n        /* \"#utility.yul\":4062:4071   */\n      dup6\n        /* \"#utility.yul\":4058:4080   */\n      add\n        /* \"#utility.yul\":4037:4090   */\n      tag_169\n      jump\t// in\n    tag_244:\n        /* \"#utility.yul\":4027:4090   */\n      swap2\n      pop\n        /* \"#utility.yul\":3983:4100   */\n      pop\n        /* \"#utility.yul\":3778:4107   */\n      swap3\n      swap2\n      pop\n      pop\n      jump\t// out\n        /* \"#utility.yul\":4113:4203   */\n    tag_170:\n        /* \"#utility.yul\":4147:4154   */\n      0x00\n        /* \"#utility.yul\":4190:4195   */\n      dup2\n        /* \"#utility.yul\":4183:4196   */\n      iszero\n        /* \"#utility.yul\":4176:4197   */\n      iszero\n        /* \"#utility.yul\":4165:4197   */\n      swap1\n      pop\n        /* \"#utility.yul\":4113:4203   */\n      swap2\n      swap1\n      pop\n      jump\t// out\n        /* \"#utility.yul\":4209:4318   */\n    tag_171:\n        /* \"#utility.yul\":4290:4311   */\n      tag_247\n        /* \"#utility.yul\":4305:4310   */\n      dup2\n        /* \"#utility.yul\":4290:4311   */\n      tag_170\n      jump\t// in\n    tag_247:\n        /* \"#utility.yul\":4285:4288   */\n      dup3\n        /* \"#utility.yul\":4278:4312   */\n      mstore\n        /* \"#utility.yul\":4209:4318   */\n      pop\n      pop\n      jump\t// out\n        /* \"#utility.yul\":4324:4534   */\n    tag_39:\n        /* \"#utility.yul\":4411:4415   */\n      0x00\n        /* \"#utility.yul\":4449:4451   */\n      0x20\n        /* \"#utility.yul\":4438:4447   */\n      dup3\n        /* \"#utility.yul\":4434:4452   */\n      add\n        /* \"#utility.yul\":4426:4452   */\n      swap1\n      pop\n        /* \"#utility.yul\":4462:4527   */\n      tag_249\n        /* \"#utility.yul\":4524:4525   */\n      0x00\n        /* \"#utility.yul\":4513:4522   */\n      dup4\n        /* \"#utility.yul\":4509:4526   */\n      add\n        /* \"#utility.yul\":4500:4506   */\n      dup5\n        /* \"#utility.yul\":4462:4527   */\n      tag_171\n      jump\t// in\n    tag_249:\n        /* \"#utility.yul\":4324:4534   */\n      swap3\n      swap2\n      pop\n      pop\n      jump\t// out\n        /* \"#utility.yul\":4540:4639   */\n    tag_172:\n        /* \"#utility.yul\":4592:4598   */\n      0x00\n        /* \"#utility.yul\":4626:4631   */\n      dup2\n        /* \"#utility.yul\":4620:4632   */\n      mload\n        /* \"#utility.yul\":4610:4632   */\n      swap1\n      pop\n        /* \"#utility.yul\":4540:4639   */\n      swap2\n      swap1\n      pop\n      jump\t// out\n        /* \"#utility.yul\":4645:4814   */\n    tag_173:\n        /* \"#utility.yul\":4729:4740   */\n      0x00\n        /* \"#utility.yul\":4763:4769   */\n      dup3\n        /* \"#utility.yul\":4758:4761   */\n      dup3\n        /* \"#utility.yul\":4751:4770   */\n      mstore\n        /* \"#utility.yul\":4803:4807   */\n      0x20\n        /* \"#utility.yul\":4798:4801   */\n      dup3\n        /* \"#utility.yul\":4794:4808   */\n      add\n        /* \"#utility.yul\":4779:4808   */\n      swap1\n      pop\n        /* \"#utility.yul\":4645:4814   */\n      swap3\n      swap2\n      pop\n      pop\n      jump\t// out\n        /* \"#utility.yul\":4820:4959   */\n    tag_174:\n        /* \"#utility.yul\":4909:4915   */\n      dup3\n        /* \"#utility.yul\":4904:4907   */\n      dup2\n        /* \"#utility.yul\":4899:4902   */\n      dup4\n        /* \"#utility.yul\":4893:4916   */\n      mcopy\n        /* \"#utility.yul\":4950:4951   */\n      0x00\n        /* \"#utility.yul\":4941:4947   */\n      dup4\n        /* \"#utility.yul\":4936:4939   */\n      dup4\n        /* \"#utility.yul\":4932:4948   */\n      add\n        /* \"#utility.yul\":4925:4952   */\n      mstore\n        /* \"#utility.yul\":4820:4959   */\n      pop\n      pop\n      pop\n      jump\t// out\n        /* \"#utility.yul\":4965:5342   */\n    tag_175:\n        /* \"#utility.yul\":5053:5056   */\n      0x00\n        /* \"#utility.yul\":5081:5120   */\n      tag_254\n        /* \"#utility.yul\":5114:5119   */\n      dup3\n        /* \"#utility.yul\":5081:5120   */\n      tag_172\n      jump\t// in\n    tag_254:\n        /* \"#utility.yul\":5136:5207   */\n      tag_255\n        /* \"#utility.yul\":5200:5206   */\n      dup2\n        /* \"#utility.yul\":5195:5198   */\n      dup6\n        /* \"#utility.yul\":5136:5207   */\n      tag_173\n      jump\t// in\n    tag_255:\n        /* \"#utility.yul\":5129:5207   */\n      swap4\n      pop\n        /* \"#utility.yul\":5216:5281   */\n      tag_256\n        /* \"#utility.yul\":5274:5280   */\n      dup2\n        /* \"#utility.yul\":5269:5272   */\n      dup6\n        /* \"#utility.yul\":5262:5266   */\n      0x20\n        /* \"#utility.yul\":5255:5260   */\n      dup7\n        /* \"#utility.yul\":5251:5267   */\n      add\n        /* \"#utility.yul\":5216:5281   */\n      tag_174\n      jump\t// in\n    tag_256:\n        /* \"#utility.yul\":5306:5335   */\n      tag_257\n        /* \"#utility.yul\":5328:5334   */\n      dup2\n        /* \"#utility.yul\":5306:5335   */\n      tag_158\n      jump\t// in\n    tag_257:\n        /* \"#utility.yul\":5301:5304   */\n      dup5\n        /* \"#utility.yul\":5297:5336   */\n      add\n        /* \"#utility.yul\":5290:5336   */\n      swap2\n      pop\n        /* \"#utility.yul\":5057:5342   */\n      pop\n        /* \"#utility.yul\":4965:5342   */\n      swap3\n      swap2\n      pop\n      pop\n      jump\t// out\n        /* \"#utility.yul\":5348:5661   */\n    tag_47:\n        /* \"#utility.yul\":5461:5465   */\n      0x00\n        /* \"#utility.yul\":5499:5501   */\n      0x20\n        /* \"#utility.yul\":5488:5497   */\n      dup3\n        /* \"#utility.yul\":5484:5502   */\n      add\n        /* \"#utility.yul\":5476:5502   */\n      swap1\n      pop\n        /* \"#utility.yul\":5548:5557   */\n      dup2\n        /* \"#utility.yul\":5542:5546   */\n      dup2\n        /* \"#utility.yul\":5538:5558   */\n      sub\n        /* \"#utility.yul\":5534:5535   */\n      0x00\n        /* \"#utility.yul\":5523:5532   */\n      dup4\n        /* \"#utility.yul\":5519:5536   */\n      add\n        /* \"#utility.yul\":5512:5559   */\n      mstore\n        /* \"#utility.yul\":5576:5654   */\n      tag_259\n        /* \"#utility.yul\":5649:5653   */\n      dup2\n        /* \"#utility.yul\":5640:5646   */\n      dup5\n        /* \"#utility.yul\":5576:5654   */\n      tag_175\n      jump\t// in\n    tag_259:\n        /* \"#utility.yul\":5568:5654   */\n      swap1\n      pop\n        /* \"#utility.yul\":5348:5661   */\n      swap3\n      swap2\n      pop\n      pop\n      jump\t// out\n        /* \"#utility.yul\":5667:5784   */\n    tag_176:\n        /* \"#utility.yul\":5776:5777   */\n      0x00\n        /* \"#utility.yul\":5773:5774   */\n      dup1\n        /* \"#utility.yul\":5766:5778   */\n      revert\n        /* \"#utility.yul\":5790:5907   */\n    tag_177:\n        /* \"#utility.yul\":5899:5900   */\n      0x00\n        /* \"#utility.yul\":5896:5897   */\n      dup1\n        /* \"#utility.yul\":5889:5901   */\n      revert\n        /* \"#utility.yul\":5927:6480   */\n    tag_178:\n        /* \"#utility.yul\":5985:5993   */\n      0x00\n        /* \"#utility.yul\":5995:6001   */\n      dup1\n        /* \"#utility.yul\":6045:6048   */\n      dup4\n        /* \"#utility.yul\":6038:6042   */\n      0x1f\n        /* \"#utility.yul\":6030:6036   */\n      dup5\n        /* \"#utility.yul\":6026:6043   */\n      add\n        /* \"#utility.yul\":6022:6049   */\n      slt\n        /* \"#utility.yul\":6012:6134   */\n      tag_263\n      jumpi\n        /* \"#utility.yul\":6053:6132   */\n      tag_264\n      tag_156\n      jump\t// in\n    tag_264:\n        /* \"#utility.yul\":6012:6134   */\n    tag_263:\n        /* \"#utility.yul\":6166:6172   */\n      dup3\n        /* \"#utility.yul\":6153:6173   */\n      calldataload\n        /* \"#utility.yul\":6143:6173   */\n      swap1\n      pop\n        /* \"#utility.yul\":6196:6214   */\n      0xffffffffffffffff\n        /* \"#utility.yul\":6188:6194   */\n      dup2\n        /* \"#utility.yul\":6185:6215   */\n      gt\n        /* \"#utility.yul\":6182:6299   */\n      iszero\n      tag_265\n      jumpi\n        /* \"#utility.yul\":6218:6297   */\n      tag_266\n      tag_176\n      jump\t// in\n    tag_266:\n        /* \"#utility.yul\":6182:6299   */\n    tag_265:\n        /* \"#utility.yul\":6332:6336   */\n      0x20\n        /* \"#utility.yul\":6324:6330   */\n      dup4\n        /* \"#utility.yul\":6320:6337   */\n      add\n        /* \"#utility.yul\":6308:6337   */\n      swap2\n      pop\n        /* \"#utility.yul\":6386:6389   */\n      dup4\n        /* \"#utility.yul\":6378:6382   */\n      0x01\n        /* \"#utility.yul\":6370:6376   */\n      dup3\n        /* \"#utility.yul\":6366:6383   */\n      mul\n        /* \"#utility.yul\":6356:6364   */\n      dup4\n        /* \"#utility.yul\":6352:6384   */\n      add\n        /* \"#utility.yul\":6349:6390   */\n      gt\n        /* \"#utility.yul\":6346:6474   */\n      iszero\n      tag_267\n      jumpi\n        /* \"#utility.yul\":6393:6472   */\n      tag_268\n      tag_177\n      jump\t// in\n    tag_268:\n        /* \"#utility.yul\":6346:6474   */\n    tag_267:\n        /* \"#utility.yul\":5927:6480   */\n      swap3\n      pop\n      swap3\n      swap1\n      pop\n      jump\t// out\n        /* \"#utility.yul\":6486:7015   */\n    tag_61:\n        /* \"#utility.yul\":6557:6563   */\n      0x00\n        /* \"#utility.yul\":6565:6571   */\n      dup1\n        /* \"#utility.yul\":6614:6616   */\n      0x20\n        /* \"#utility.yul\":6602:6611   */\n      dup4\n        /* \"#utility.yul\":6593:6600   */\n      dup6\n        /* \"#utility.yul\":6589:6612   */\n      sub\n        /* \"#utility.yul\":6585:6617   */\n      slt\n        /* \"#utility.yul\":6582:6701   */\n      iszero\n      tag_270\n      jumpi\n        /* \"#utility.yul\":6620:6699   */\n      tag_271\n      tag_154\n      jump\t// in\n    tag_271:\n        /* \"#utility.yul\":6582:6701   */\n    tag_270:\n        /* \"#utility.yul\":6768:6769   */\n      0x00\n        /* \"#utility.yul\":6757:6766   */\n      dup4\n        /* \"#utility.yul\":6753:6770   */\n      add\n        /* \"#utility.yul\":6740:6771   */\n      calldataload\n        /* \"#utility.yul\":6798:6816   */\n      0xffffffffffffffff\n        /* \"#utility.yul\":6790:6796   */\n      dup2\n        /* \"#utility.yul\":6787:6817   */\n      gt\n        /* \"#utility.yul\":6784:6901   */\n      iszero\n      tag_272\n      jumpi\n        /* \"#utility.yul\":6820:6899   */\n      tag_273\n      tag_155\n      jump\t// in\n    tag_273:\n        /* \"#utility.yul\":6784:6901   */\n    tag_272:\n        /* \"#utility.yul\":6933:6998   */\n      tag_274\n        /* \"#utility.yul\":6990:6997   */\n      dup6\n        /* \"#utility.yul\":6981:6987   */\n      dup3\n        /* \"#utility.yul\":6970:6979   */\n      dup7\n        /* \"#utility.yul\":6966:6988   */\n      add\n        /* \"#utility.yul\":6933:6998   */\n      tag_178\n      jump\t// in\n    tag_274:\n        /* \"#utility.yul\":6915:6998   */\n      swap3\n      pop\n      swap3\n      pop\n        /* \"#utility.yul\":6711:7008   */\n      pop\n        /* \"#utility.yul\":6486:7015   */\n      swap3\n      pop\n      swap3\n      swap1\n      pop\n      jump\t// out\n        /* \"#utility.yul\":7021:7444   */\n    tag_68:\n        /* \"#utility.yul\":7162:7166   */\n      0x00\n        /* \"#utility.yul\":7200:7202   */\n      0x40\n        /* \"#utility.yul\":7189:7198   */\n      dup3\n        /* \"#utility.yul\":7185:7203   */\n      add\n        /* \"#utility.yul\":7177:7203   */\n      swap1\n      pop\n        /* \"#utility.yul\":7249:7258   */\n      dup2\n        /* \"#utility.yul\":7243:7247   */\n      dup2\n        /* \"#utility.yul\":7239:7259   */\n      sub\n        /* \"#utility.yul\":7235:7236   */\n      0x00\n        /* \"#utility.yul\":7224:7233   */\n      dup4\n        /* \"#utility.yul\":7220:7237   */\n      add\n        /* \"#utility.yul\":7213:7260   */\n      mstore\n        /* \"#utility.yul\":7277:7355   */\n      tag_276\n        /* \"#utility.yul\":7350:7354   */\n      dup2\n        /* \"#utility.yul\":7341:7347   */\n      dup6\n        /* \"#utility.yul\":7277:7355   */\n      tag_175\n      jump\t// in\n    tag_276:\n        /* \"#utility.yul\":7269:7355   */\n      swap1\n      pop\n        /* \"#utility.yul\":7365:7437   */\n      tag_277\n        /* \"#utility.yul\":7433:7435   */\n      0x20\n        /* \"#utility.yul\":7422:7431   */\n      dup4\n        /* \"#utility.yul\":7418:7436   */\n      add\n        /* \"#utility.yul\":7409:7415   */\n      dup5\n        /* \"#utility.yul\":7365:7437   */\n      tag_167\n      jump\t// in\n    tag_277:\n        /* \"#utility.yul\":7021:7444   */\n      swap4\n      swap3\n      pop\n      pop\n      pop\n      jump\t// out\n        /* \"#utility.yul\":7450:7630   */\n    tag_101:\n        /* \"#utility.yul\":7498:7575   */\n      0x4e487b7100000000000000000000000000000000000000000000000000000000\n        /* \"#utility.yul\":7495:7496   */\n      0x00\n        /* \"#utility.yul\":7488:7576   */\n      mstore\n        /* \"#utility.yul\":7595:7599   */\n      0x21\n        /* \"#utility.yul\":7592:7593   */\n      0x04\n        /* \"#utility.yul\":7585:7600   */\n      mstore\n        /* \"#utility.yul\":7619:7623   */\n      0x24\n        /* \"#utility.yul\":7616:7617   */\n      0x00\n        /* \"#utility.yul\":7609:7624   */\n      revert\n        /* \"#utility.yul\":7636:7757   */\n    tag_179:\n        /* \"#utility.yul\":7725:7726   */\n      0x02\n        /* \"#utility.yul\":7718:7723   */\n      dup2\n        /* \"#utility.yul\":7715:7727   */\n      lt\n        /* \"#utility.yul\":7705:7751   */\n      tag_280\n      jumpi\n        /* \"#utility.yul\":7731:7749   */\n      tag_281\n      tag_101\n      jump\t// in\n    tag_281:\n        /* \"#utility.yul\":7705:7751   */\n    tag_280:\n        /* \"#utility.yul\":7636:7757   */\n      pop\n      jump\t// out\n        /* \"#utility.yul\":7763:7906   */\n    tag_180:\n        /* \"#utility.yul\":7816:7823   */\n      0x00\n        /* \"#utility.yul\":7845:7850   */\n      dup2\n        /* \"#utility.yul\":7834:7850   */\n      swap1\n      pop\n        /* \"#utility.yul\":7851:7900   */\n      tag_283\n        /* \"#utility.yul\":7894:7899   */\n      dup3\n        /* \"#utility.yul\":7851:7900   */\n      tag_179\n      jump\t// in\n    tag_283:\n        /* \"#utility.yul\":7763:7906   */\n      swap2\n      swap1\n      pop\n      jump\t// out\n        /* \"#utility.yul\":7912:8055   */\n    tag_181:\n        /* \"#utility.yul\":7976:7985   */\n      0x00\n        /* \"#utility.yul\":8009:8049   */\n      tag_285\n        /* \"#utility.yul\":8043:8048   */\n      dup3\n        /* \"#utility.yul\":8009:8049   */\n      tag_180\n      jump\t// in\n    tag_285:\n        /* \"#utility.yul\":7996:8049   */\n      swap1\n      pop\n        /* \"#utility.yul\":7912:8055   */\n      swap2\n      swap1\n      pop\n      jump\t// out\n        /* \"#utility.yul\":8061:8220   */\n    tag_182:\n        /* \"#utility.yul\":8162:8213   */\n      tag_287\n        /* \"#utility.yul\":8207:8212   */\n      dup2\n        /* \"#utility.yul\":8162:8213   */\n      tag_181\n      jump\t// in\n    tag_287:\n        /* \"#utility.yul\":8157:8160   */\n      dup3\n        /* \"#utility.yul\":8150:8214   */\n      mstore\n        /* \"#utility.yul\":8061:8220   */\n      pop\n      pop\n      jump\t// out\n        /* \"#utility.yul\":8226:8476   */\n    tag_86:\n        /* \"#utility.yul\":8333:8337   */\n      0x00\n        /* \"#utility.yul\":8371:8373   */\n      0x20\n        /* \"#utility.yul\":8360:8369   */\n      dup3\n        /* \"#utility.yul\":8356:8374   */\n      add\n        /* \"#utility.yul\":8348:8374   */\n      swap1\n      pop\n        /* \"#utility.yul\":8384:8469   */\n      tag_289\n        /* \"#utility.yul\":8466:8467   */\n      0x00\n        /* \"#utility.yul\":8455:8464   */\n      dup4\n        /* \"#utility.yul\":8451:8468   */\n      add\n        /* \"#utility.yul\":8442:8448   */\n      dup5\n        /* \"#utility.yul\":8384:8469   */\n      tag_182\n      jump\t// in\n    tag_289:\n        /* \"#utility.yul\":8226:8476   */\n      swap3\n      swap2\n      pop\n      pop\n      jump\t// out\n        /* \"#utility.yul\":8482:9136   */\n    tag_93:\n        /* \"#utility.yul\":8560:8566   */\n      0x00\n        /* \"#utility.yul\":8568:8574   */\n      dup1\n        /* \"#utility.yul\":8617:8619   */\n      0x40\n        /* \"#utility.yul\":8605:8614   */\n      dup4\n        /* \"#utility.yul\":8596:8603   */\n      dup6\n        /* \"#utility.yul\":8592:8615   */\n      sub\n        /* \"#utility.yul\":8588:8620   */\n      slt\n        /* \"#utility.yul\":8585:8704   */\n      iszero\n      tag_291\n      jumpi\n        /* \"#utility.yul\":8623:8702   */\n      tag_292\n      tag_154\n      jump\t// in\n    tag_292:\n        /* \"#utility.yul\":8585:8704   */\n    tag_291:\n        /* \"#utility.yul\":8771:8772   */\n      0x00\n        /* \"#utility.yul\":8760:8769   */\n      dup4\n        /* \"#utility.yul\":8756:8773   */\n      add\n        /* \"#utility.yul\":8743:8774   */\n      calldataload\n        /* \"#utility.yul\":8801:8819   */\n      0xffffffffffffffff\n        /* \"#utility.yul\":8793:8799   */\n      dup2\n        /* \"#utility.yul\":8790:8820   */\n      gt\n        /* \"#utility.yul\":8787:8904   */\n      iszero\n      tag_293\n      jumpi\n        /* \"#utility.yul\":8823:8902   */\n      tag_294\n      tag_155\n      jump\t// in\n    tag_294:\n        /* \"#utility.yul\":8787:8904   */\n    tag_293:\n        /* \"#utility.yul\":8928:8991   */\n      tag_295\n        /* \"#utility.yul\":8983:8990   */\n      dup6\n        /* \"#utility.yul\":8974:8980   */\n      dup3\n        /* \"#utility.yul\":8963:8972   */\n      dup7\n        /* \"#utility.yul\":8959:8981   */\n      add\n        /* \"#utility.yul\":8928:8991   */\n      tag_165\n      jump\t// in\n    tag_295:\n        /* \"#utility.yul\":8918:8991   */\n      swap3\n      pop\n        /* \"#utility.yul\":8714:9001   */\n      pop\n        /* \"#utility.yul\":9040:9042   */\n      0x20\n        /* \"#utility.yul\":9066:9119   */\n      tag_296\n        /* \"#utility.yul\":9111:9118   */\n      dup6\n        /* \"#utility.yul\":9102:9108   */\n      dup3\n        /* \"#utility.yul\":9091:9100   */\n      dup7\n        /* \"#utility.yul\":9087:9109   */\n      add\n        /* \"#utility.yul\":9066:9119   */\n      tag_169\n      jump\t// in\n    tag_296:\n        /* \"#utility.yul\":9056:9119   */\n      swap2\n      pop\n        /* \"#utility.yul\":9011:9129   */\n      pop\n        /* \"#utility.yul\":8482:9136   */\n      swap3\n      pop\n      swap3\n      swap1\n      pop\n      jump\t// out\n        /* \"#utility.yul\":9142:9322   */\n    tag_183:\n        /* \"#utility.yul\":9190:9267   */\n      0x4e487b7100000000000000000000000000000000000000000000000000000000\n        /* \"#utility.yul\":9187:9188   */\n      0x00\n        /* \"#utility.yul\":9180:9268   */\n      mstore\n        /* \"#utility.yul\":9287:9291   */\n      0x11\n        /* \"#utility.yul\":9284:9285   */\n      0x04\n        /* \"#utility.yul\":9277:9292   */\n      mstore\n        /* \"#utility.yul\":9311:9315   */\n      0x24\n        /* \"#utility.yul\":9308:9309   */\n      0x00\n        /* \"#utility.yul\":9301:9316   */\n      revert\n        /* \"#utility.yul\":9328:9519   */\n    tag_97:\n        /* \"#utility.yul\":9368:9371   */\n      0x00\n        /* \"#utility.yul\":9387:9407   */\n      tag_299\n        /* \"#utility.yul\":9405:9406   */\n      dup3\n        /* \"#utility.yul\":9387:9407   */\n      tag_166\n      jump\t// in\n    tag_299:\n        /* \"#utility.yul\":9382:9407   */\n      swap2\n      pop\n        /* \"#utility.yul\":9421:9441   */\n      tag_300\n        /* \"#utility.yul\":9439:9440   */\n      dup4\n        /* \"#utility.yul\":9421:9441   */\n      tag_166\n      jump\t// in\n    tag_300:\n        /* \"#utility.yul\":9416:9441   */\n      swap3\n      pop\n        /* \"#utility.yul\":9464:9465   */\n      dup3\n        /* \"#utility.yul\":9461:9462   */\n      dup3\n        /* \"#utility.yul\":9457:9466   */\n      add\n        /* \"#utility.yul\":9450:9466   */\n      swap1\n      pop\n        /* \"#utility.yul\":9485:9488   */\n      dup1\n        /* \"#utility.yul\":9482:9483   */\n      dup3\n        /* \"#utility.yul\":9479:9489   */\n      gt\n        /* \"#utility.yul\":9476:9512   */\n      iszero\n      tag_301\n      jumpi\n        /* \"#utility.yul\":9492:9510   */\n      tag_302\n      tag_183\n      jump\t// in\n    tag_302:\n        /* \"#utility.yul\":9476:9512   */\n    tag_301:\n        /* \"#utility.yul\":9328:9519   */\n      swap3\n      swap2\n      pop\n      pop\n      jump\t// out\n        /* \"#utility.yul\":9525:9959   */\n    tag_184:\n        /* \"#utility.yul\":9614:9619   */\n      0x00\n        /* \"#utility.yul\":9639:9705   */\n      tag_304\n        /* \"#utility.yul\":9655:9704   */\n      tag_305\n        /* \"#utility.yul\":9697:9703   */\n      dup5\n        /* \"#utility.yul\":9655:9704   */\n      tag_162\n      jump\t// in\n    tag_305:\n        /* \"#utility.yul\":9639:9705   */\n      tag_161\n      jump\t// in\n    tag_304:\n        /* \"#utility.yul\":9630:9705   */\n      swap1\n      pop\n        /* \"#utility.yul\":9728:9734   */\n      dup3\n        /* \"#utility.yul\":9721:9726   */\n      dup2\n        /* \"#utility.yul\":9714:9735   */\n      mstore\n        /* \"#utility.yul\":9766:9770   */\n      0x20\n        /* \"#utility.yul\":9759:9764   */\n      dup2\n        /* \"#utility.yul\":9755:9771   */\n      add\n        /* \"#utility.yul\":9804:9807   */\n      dup5\n        /* \"#utility.yul\":9795:9801   */\n      dup5\n        /* \"#utility.yul\":9790:9793   */\n      dup5\n        /* \"#utility.yul\":9786:9802   */\n      add\n        /* \"#utility.yul\":9783:9808   */\n      gt\n        /* \"#utility.yul\":9780:9892   */\n      iszero\n      tag_306\n      jumpi\n        /* \"#utility.yul\":9811:9890   */\n      tag_307\n      tag_157\n      jump\t// in\n    tag_307:\n        /* \"#utility.yul\":9780:9892   */\n    tag_306:\n        /* \"#utility.yul\":9901:9953   */\n      tag_308\n        /* \"#utility.yul\":9946:9952   */\n      dup5\n        /* \"#utility.yul\":9941:9944   */\n      dup3\n        /* \"#utility.yul\":9936:9939   */\n      dup6\n        /* \"#utility.yul\":9901:9953   */\n      tag_174\n      jump\t// in\n    tag_308:\n        /* \"#utility.yul\":9620:9959   */\n      pop\n        /* \"#utility.yul\":9525:9959   */\n      swap4\n      swap3\n      pop\n      pop\n      pop\n      jump\t// out\n        /* \"#utility.yul\":9979:10334   */\n    tag_185:\n        /* \"#utility.yul\":10046:10051   */\n      0x00\n        /* \"#utility.yul\":10095:10098   */\n      dup3\n        /* \"#utility.yul\":10088:10092   */\n      0x1f\n        /* \"#utility.yul\":10080:10086   */\n      dup4\n        /* \"#utility.yul\":10076:10093   */\n      add\n        /* \"#utility.yul\":10072:10099   */\n      slt\n        /* \"#utility.yul\":10062:10184   */\n      tag_310\n      jumpi\n        /* \"#utility.yul\":10103:10182   */\n      tag_311\n      tag_156\n      jump\t// in\n    tag_311:\n        /* \"#utility.yul\":10062:10184   */\n    tag_310:\n        /* \"#utility.yul\":10213:10219   */\n      dup2\n        /* \"#utility.yul\":10207:10220   */\n      mload\n        /* \"#utility.yul\":10238:10328   */\n      tag_312\n        /* \"#utility.yul\":10324:10327   */\n      dup5\n        /* \"#utility.yul\":10316:10322   */\n      dup3\n        /* \"#utility.yul\":10309:10313   */\n      0x20\n        /* \"#utility.yul\":10301:10307   */\n      dup7\n        /* \"#utility.yul\":10297:10314   */\n      add\n        /* \"#utility.yul\":10238:10328   */\n      tag_184\n      jump\t// in\n    tag_312:\n        /* \"#utility.yul\":10229:10328   */\n      swap2\n      pop\n        /* \"#utility.yul\":10052:10334   */\n      pop\n        /* \"#utility.yul\":9979:10334   */\n      swap3\n      swap2\n      pop\n      pop\n      jump\t// out\n        /* \"#utility.yul\":10340:10864   */\n    tag_111:\n        /* \"#utility.yul\":10420:10426   */\n      0x00\n        /* \"#utility.yul\":10469:10471   */\n      0x20\n        /* \"#utility.yul\":10457:10466   */\n      dup3\n        /* \"#utility.yul\":10448:10455   */\n      dup5\n        /* \"#utility.yul\":10444:10467   */\n      sub\n        /* \"#utility.yul\":10440:10472   */\n      slt\n        /* \"#utility.yul\":10437:10556   */\n      iszero\n      tag_314\n      jumpi\n        /* \"#utility.yul\":10475:10554   */\n      tag_315\n      tag_154\n      jump\t// in\n    tag_315:\n        /* \"#utility.yul\":10437:10556   */\n    tag_314:\n        /* \"#utility.yul\":10616:10617   */\n      0x00\n        /* \"#utility.yul\":10605:10614   */\n      dup3\n        /* \"#utility.yul\":10601:10618   */\n      add\n        /* \"#utility.yul\":10595:10619   */\n      mload\n        /* \"#utility.yul\":10646:10664   */\n      0xffffffffffffffff\n        /* \"#utility.yul\":10638:10644   */\n      dup2\n        /* \"#utility.yul\":10635:10665   */\n      gt\n        /* \"#utility.yul\":10632:10749   */\n      iszero\n      tag_316\n      jumpi\n        /* \"#utility.yul\":10668:10747   */\n      tag_317\n      tag_155\n      jump\t// in\n    tag_317:\n        /* \"#utility.yul\":10632:10749   */\n    tag_316:\n        /* \"#utility.yul\":10773:10847   */\n      tag_318\n        /* \"#utility.yul\":10839:10846   */\n      dup5\n        /* \"#utility.yul\":10830:10836   */\n      dup3\n        /* \"#utility.yul\":10819:10828   */\n      dup6\n        /* \"#utility.yul\":10815:10837   */\n      add\n        /* \"#utility.yul\":10773:10847   */\n      tag_185\n      jump\t// in\n    tag_318:\n        /* \"#utility.yul\":10763:10847   */\n      swap2\n      pop\n        /* \"#utility.yul\":10566:10857   */\n      pop\n        /* \"#utility.yul\":10340:10864   */\n      swap3\n      swap2\n      pop\n      pop\n      jump\t// out\n        /* \"#utility.yul\":10870:11103   */\n    tag_118:\n        /* \"#utility.yul\":10909:10912   */\n      0x00\n        /* \"#utility.yul\":10932:10956   */\n      tag_320\n        /* \"#utility.yul\":10950:10955   */\n      dup3\n        /* \"#utility.yul\":10932:10956   */\n      tag_166\n      jump\t// in\n    tag_320:\n        /* \"#utility.yul\":10923:10956   */\n      swap2\n      pop\n        /* \"#utility.yul\":10978:11044   */\n      0xffffffffffffffffffffffffffffffffffffffffffffffffffffffffffffffff\n        /* \"#utility.yul\":10971:10976   */\n      dup3\n        /* \"#utility.yul\":10968:11045   */\n      sub\n        /* \"#utility.yul\":10965:11068   */\n      tag_321\n      jumpi\n        /* \"#utility.yul\":11048:11066   */\n      tag_322\n      tag_183\n      jump\t// in\n    tag_322:\n        /* \"#utility.yul\":10965:11068   */\n    tag_321:\n        /* \"#utility.yul\":11095:11096   */\n      0x01\n        /* \"#utility.yul\":11088:11093   */\n      dup3\n        /* \"#utility.yul\":11084:11097   */\n      add\n        /* \"#utility.yul\":11077:11097   */\n      swap1\n      pop\n        /* \"#utility.yul\":10870:11103   */\n      swap2\n      swap1\n      pop\n      jump\t// out\n        /* \"#utility.yul\":11109:11257   */\n    tag_186:\n        /* \"#utility.yul\":11211:11222   */\n      0x00\n        /* \"#utility.yul\":11248:11251   */\n      dup2\n        /* \"#utility.yul\":11233:11251   */\n      swap1\n      pop\n        /* \"#utility.yul\":11109:11257   */\n      swap3\n      swap2\n      pop\n      pop\n      jump\t// out\n        /* \"#utility.yul\":11287:11617   */\n    tag_187:\n        /* \"#utility.yul\":11403:11406   */\n      0x00\n        /* \"#utility.yul\":11424:11513   */\n      tag_325\n        /* \"#utility.yul\":11506:11512   */\n      dup4\n        /* \"#utility.yul\":11501:11504   */\n      dup6\n        /* \"#utility.yul\":11424:11513   */\n      tag_186\n      jump\t// in\n    tag_325:\n        /* \"#utility.yul\":11417:11513   */\n      swap4\n      pop\n        /* \"#utility.yul\":11523:11579   */\n      tag_326\n        /* \"#utility.yul\":11572:11578   */\n      dup4\n        /* \"#utility.yul\":11567:11570   */\n      dup6\n        /* \"#utility.yul\":11560:11565   */\n      dup5\n        /* \"#utility.yul\":11523:11579   */\n      tag_163\n      jump\t// in\n    tag_326:\n        /* \"#utility.yul\":11604:11610   */\n      dup3\n        /* \"#utility.yul\":11599:11602   */\n      dup5\n        /* \"#utility.yul\":11595:11611   */\n      add\n        /* \"#utility.yul\":11588:11611   */\n      swap1\n      pop\n        /* \"#utility.yul\":11287:11617   */\n      swap4\n      swap3\n      pop\n      pop\n      pop\n      jump\t// out\n        /* \"#utility.yul\":11623:11784   */\n    tag_188:\n        /* \"#utility.yul\":11763:11776   */\n      0x697320617765736f6d6521000000000000000000000000000000000000000000\n        /* \"#utility.yul\":11759:11760   */\n      0x00\n        /* \"#utility.yul\":11751:11757   */\n      dup3\n        /* \"#utility.yul\":11747:11761   */\n      add\n        /* \"#utility.yul\":11740:11777   */\n      mstore\n        /* \"#utility.yul\":11623:11784   */\n      pop\n      jump\t// out\n        /* \"#utility.yul\":11790:12192   */\n    tag_189:\n        /* \"#utility.yul\":11950:11953   */\n      0x00\n        /* \"#utility.yul\":11971:12056   */\n      tag_329\n        /* \"#utility.yul\":12053:12055   */\n      0x0b\n        /* \"#utility.yul\":12048:12051   */\n      dup4\n        /* \"#utility.yul\":11971:12056   */\n      tag_186\n      jump\t// in\n    tag_329:\n        /* \"#utility.yul\":11964:12056   */\n      swap2\n      pop\n        /* \"#utility.yul\":12065:12158   */\n      tag_330\n        /* \"#utility.yul\":12154:12157   */\n      dup3\n        /* \"#utility.yul\":12065:12158   */\n      tag_188\n      jump\t// in\n    tag_330:\n        /* \"#utility.yul\":12183:12185   */\n      0x0b\n        /* \"#utility.yul\":12178:12181   */\n      dup3\n        /* \"#utility.yul\":12174:12186   */\n      add\n        /* \"#utility.yul\":12167:12186   */\n      swap1\n      pop\n        /* \"#utility.yul\":11790:12192   */\n      swap2\n      swap1\n      pop\n      jump\t// out\n        /* \"#utility.yul\":12198:12759   */\n    tag_127:\n        /* \"#utility.yul\":12441:12444   */\n      0x00\n        /* \"#utility.yul\":12463:12568   */\n      tag_332\n        /* \"#utility.yul\":12564:12567   */\n      dup3\n        /* \"#utility.yul\":12555:12561   */\n      dup5\n        /* \"#utility.yul\":12547:12553   */\n      dup7\n        /* \"#utility.yul\":12463:12568   */\n      tag_187\n      jump\t// in\n    tag_332:\n        /* \"#utility.yul\":12456:12568   */\n      swap2\n      pop\n        /* \"#utility.yul\":12585:12733   */\n      tag_333\n        /* \"#utility.yul\":12729:12732   */\n      dup3\n        /* \"#utility.yul\":12585:12733   */\n      tag_189\n      jump\t// in\n    tag_333:\n        /* \"#utility.yul\":12578:12733   */\n      swap2\n      pop\n        /* \"#utility.yul\":12750:12753   */\n      dup2\n        /* \"#utility.yul\":12743:12753   */\n      swap1\n      pop\n        /* \"#utility.yul\":12198:12759   */\n      swap4\n      swap3\n      pop\n      pop\n      pop\n      jump\t// out\n        /* \"#utility.yul\":12765:12945   */\n    tag_190:\n        /* \"#utility.yul\":12813:12890   */\n      0x4e487b7100000000000000000000000000000000000000000000000000000000\n        /* \"#utility.yul\":12810:12811   */\n      0x00\n        /* \"#utility.yul\":12803:12891   */\n      mstore\n        /* \"#utility.yul\":12910:12914   */\n      0x22\n        /* \"#utility.yul\":12907:12908   */\n      0x04\n        /* \"#utility.yul\":12900:12915   */\n      mstore\n        /* \"#utility.yul\":12934:12938   */\n      0x24\n        /* \"#utility.yul\":12931:12932   */\n      0x00\n        /* \"#utility.yul\":12924:12939   */\n      revert\n        /* \"#utility.yul\":12951:13271   */\n    tag_131:\n        /* \"#utility.yul\":12995:13001   */\n      0x00\n        /* \"#utility.yul\":13032:13033   */\n      0x02\n        /* \"#utility.yul\":13026:13030   */\n      dup3\n        /* \"#utility.yul\":13022:13034   */\n      div\n        /* \"#utility.yul\":13012:13034   */\n      swap1\n      pop\n        /* \"#utility.yul\":13079:13080   */\n      0x01\n        /* \"#utility.yul\":13073:13077   */\n      dup3\n        /* \"#utility.yul\":13069:13081   */\n      and\n        /* \"#utility.yul\":13100:13118   */\n      dup1\n        /* \"#utility.yul\":13090:13171   */\n      tag_336\n      jumpi\n        /* \"#utility.yul\":13156:13160   */\n      0x7f\n        /* \"#utility.yul\":13148:13154   */\n      dup3\n        /* \"#utility.yul\":13144:13161   */\n      and\n        /* \"#utility.yul\":13134:13161   */\n      swap2\n      pop\n        /* \"#utility.yul\":13090:13171   */\n    tag_336:\n        /* \"#utility.yul\":13218:13220   */\n      0x20\n        /* \"#utility.yul\":13210:13216   */\n      dup3\n        /* \"#utility.yul\":13207:13221   */\n      lt\n        /* \"#utility.yul\":13187:13205   */\n      dup2\n        /* \"#utility.yul\":13184:13222   */\n      sub\n        /* \"#utility.yul\":13181:13265   */\n      tag_337\n      jumpi\n        /* \"#utility.yul\":13237:13255   */\n      tag_338\n      tag_190\n      jump\t// in\n    tag_338:\n        /* \"#utility.yul\":13181:13265   */\n    tag_337:\n        /* \"#utility.yul\":13002:13271   */\n      pop\n        /* \"#utility.yul\":12951:13271   */\n      swap2\n      swap1\n      pop\n      jump\t// out\n        /* \"#utility.yul\":13277:13403   */\n    tag_191:\n        /* \"#utility.yul\":13314:13321   */\n      0x00\n        /* \"#utility.yul\":13354:13396   */\n      0xffffffffffffffffffffffffffffffffffffffff\n        /* \"#utility.yul\":13347:13352   */\n      dup3\n        /* \"#utility.yul\":13343:13397   */\n      and\n        /* \"#utility.yul\":13332:13397   */\n      swap1\n      pop\n        /* \"#utility.yul\":13277:13403   */\n      swap2\n      swap1\n      pop\n      jump\t// out\n        /* \"#utility.yul\":13409:13505   */\n    tag_192:\n        /* \"#utility.yul\":13446:13453   */\n      0x00\n        /* \"#utility.yul\":13475:13499   */\n      tag_341\n        /* \"#utility.yul\":13493:13498   */\n      dup3\n        /* \"#utility.yul\":13475:13499   */\n      tag_191\n      jump\t// in\n    tag_341:\n        /* \"#utility.yul\":13464:13499   */\n      swap1\n      pop\n        /* \"#utility.yul\":13409:13505   */\n      swap2\n      swap1\n      pop\n      jump\t// out\n        /* \"#utility.yul\":13511:13629   */\n    tag_193:\n        /* \"#utility.yul\":13598:13622   */\n      tag_343\n        /* \"#utility.yul\":13616:13621   */\n      dup2\n        /* \"#utility.yul\":13598:13622   */\n      tag_192\n      jump\t// in\n    tag_343:\n        /* \"#utility.yul\":13593:13596   */\n      dup3\n        /* \"#utility.yul\":13586:13623   */\n      mstore\n        /* \"#utility.yul\":13511:13629   */\n      pop\n      pop\n      jump\t// out\n        /* \"#utility.yul\":13635:13967   */\n    tag_145:\n        /* \"#utility.yul\":13756:13760   */\n      0x00\n        /* \"#utility.yul\":13794:13796   */\n      0x40\n        /* \"#utility.yul\":13783:13792   */\n      dup3\n        /* \"#utility.yul\":13779:13797   */\n      add\n        /* \"#utility.yul\":13771:13797   */\n      swap1\n      pop\n        /* \"#utility.yul\":13807:13878   */\n      tag_345\n        /* \"#utility.yul\":13875:13876   */\n      0x00\n        /* \"#utility.yul\":13864:13873   */\n      dup4\n        /* \"#utility.yul\":13860:13877   */\n      add\n        /* \"#utility.yul\":13851:13857   */\n      dup6\n        /* \"#utility.yul\":13807:13878   */\n      tag_167\n      jump\t// in\n    tag_345:\n        /* \"#utility.yul\":13888:13960   */\n      tag_346\n        /* \"#utility.yul\":13956:13958   */\n      0x20\n        /* \"#utility.yul\":13945:13954   */\n      dup4\n        /* \"#utility.yul\":13941:13959   */\n      add\n        /* \"#utility.yul\":13932:13938   */\n      dup5\n        /* \"#utility.yul\":13888:13960   */\n      tag_193\n      jump\t// in\n    tag_346:\n        /* \"#utility.yul\":13635:13967   */\n      swap4\n      swap3\n      pop\n      pop\n      pop\n      jump\t// out\n        /* \"#utility.yul\":13973:14363   */\n    tag_194:\n        /* \"#utility.yul\":14079:14082   */\n      0x00\n        /* \"#utility.yul\":14107:14146   */\n      tag_348\n        /* \"#utility.yul\":14140:14145   */\n      dup3\n        /* \"#utility.yul\":14107:14146   */\n      tag_172\n      jump\t// in\n    tag_348:\n        /* \"#utility.yul\":14162:14251   */\n      tag_349\n        /* \"#utility.yul\":14244:14250   */\n      dup2\n        /* \"#utility.yul\":14239:14242   */\n      dup6\n        /* \"#utility.yul\":14162:14251   */\n      tag_186\n      jump\t// in\n    tag_349:\n        /* \"#utility.yul\":14155:14251   */\n      swap4\n      pop\n        /* \"#utility.yul\":14260:14325   */\n      tag_350\n        /* \"#utility.yul\":14318:14324   */\n      dup2\n        /* \"#utility.yul\":14313:14316   */\n      dup6\n        /* \"#utility.yul\":14306:14310   */\n      0x20\n        /* \"#utility.yul\":14299:14304   */\n      dup7\n        /* \"#utility.yul\":14295:14311   */\n      add\n        /* \"#utility.yul\":14260:14325   */\n      tag_174\n      jump\t// in\n    tag_350:\n        /* \"#utility.yul\":14350:14356   */\n      dup1\n        /* \"#utility.yul\":14345:14348   */\n      dup5\n        /* \"#utility.yul\":14341:14357   */\n      add\n        /* \"#utility.yul\":14334:14357   */\n      swap2\n      pop\n        /* \"#utility.yul\":14083:14363   */\n      pop\n        /* \"#utility.yul\":13973:14363   */\n      swap3\n      swap2\n      pop\n      pop\n      jump\t// out\n        /* \"#utility.yul\":14369:14644   */\n    tag_151:\n        /* \"#utility.yul\":14501:14504   */\n      0x00\n        /* \"#utility.yul\":14523:14618   */\n      tag_352\n        /* \"#utility.yul\":14614:14617   */\n      dup3\n        /* \"#utility.yul\":14605:14611   */\n      dup5\n        /* \"#utility.yul\":14523:14618   */\n      tag_194\n      jump\t// in\n    tag_352:\n        /* \"#utility.yul\":14516:14618   */\n      swap2\n      pop\n        /* \"#utility.yul\":14635:14638   */\n      dup2\n        /* \"#utility.yul\":14628:14638   */\n      swap1\n      pop\n        /* \"#utility.yul\":14369:14644   */\n      swap3\n      swap2\n      pop\n      pop\n      jump\t// out\n\n    auxdata: 0xa2646970667358221220c8841041c457e50460c5767573910d2a01de5ef2d1ca0ba81ff40244f5401c6764736f6c634300081a0033\n}\n",
				"bytecode": {
					"linkReferences": {},
					"object": "6080604052348015600e575f80fd5b50610f3f8061001c5f395ff3fe608060405234801561000f575f80fd5b506004361061011f575f3560e01c806391c9d389116100ab578063bca353be1161006f578063bca353be1461030a578063c03ece0614610314578063c19d93fb14610330578063cb6a33f81461034e578063e1b3202a1461037e5761011f565b806391c9d389146102535780639e7a13ad14610283578063a621d15e146102b4578063a7e1a364146102d2578063b6339418146102ee5761011f565b80633a32b549116100f25780633a32b549146101d157806343aac8bb146101ef578063559879401461020d5780638701f8ca1461022b5780638fda356d146102495761011f565b806303a43009146101235780631db05a881461015357806322f3e2d41461018357806329cd1d96146101a1575b5f80fd5b61013d600480360381019061013891906108cd565b61039a565b60405161014a919061092c565b60405180910390f35b61016d6004803603810190610168919061096f565b6103c7565b60405161017a919061092c565b60405180910390f35b61018b6103e1565b60405161019891906109b4565b60405180910390f35b6101bb60048036038101906101b6919061096f565b61041c565b6040516101c8919061092c565b60405180910390f35b6101d961043c565b6040516101e69190610a2d565b60405180910390f35b6101f7610479565b6040516102049190610a2d565b60405180910390f35b6102156104f0565b604051610222919061092c565b60405180910390f35b61023361052c565b6040516102409190610a2d565b60405180910390f35b61025161053b565b005b61026d60048036038101906102689190610aaa565b610566565b60405161027a9190610a2d565b60405180910390f35b61029d6004803603810190610298919061096f565b610597565b6040516102ab929190610af5565b60405180910390f35b6102bc61064c565b6040516102c9919061092c565b60405180910390f35b6102ec60048036038101906102e7919061096f565b610654565b005b6103086004803603810190610303919061096f565b61067d565b005b610312610686565b005b61032e6004803603810190610329919061096f565b6106b2565b005b6103386106ee565b6040516103459190610b96565b60405180910390f35b6103686004803603810190610363919061096f565b610700565b60405161037591906109b4565b60405180910390f35b61039860048036038101906103939190610baf565b61071c565b005b6003818051602081018201805184825260208301602085012081835280955050505050505f915090505481565b5f806005836103d69190610c36565b905080915050919050565b5f8060018111156103f5576103f4610b23565b5b60045f9054906101000a900460ff16600181111561041657610415610b23565b5b14905090565b6001818154811061042b575f80fd5b905f5260205f20015f915090505481565b60606040518060400160405280601c81526020017f5468697320697320616e2065787465726e616c2066756e6374696f6e00000000815250905090565b60603073ffffffffffffffffffffffffffffffffffffffff166343aac8bb6040518163ffffffff1660e01b81526004015f60405180830381865afa1580156104c3573d5f803e3d5ffd5b505050506040513d5f823e3d601f19601f820116820180604052508101906104eb9190610cd7565b905090565b5f805f90505f600190505b5f54811161052457808261050f9190610c36565b9150808061051c90610d1e565b9150506104fb565b508091505090565b6060610536610743565b905090565b5f60045f6101000a81548160ff0219169083600181111561055f5761055e610b23565b5b0217905550565b60605f838360405160200161057c929190610ddd565b60405160208183030381529060405290508091505092915050565b600281815481106105a6575f80fd5b905f5260205f2090600202015f91509050805f0180546105c590610e2d565b80601f01602080910402602001604051908101604052809291908181526020018280546105f190610e2d565b801561063c5780601f106106135761010080835404028352916020019161063c565b820191905f5260205f20905b81548152906001019060200180831161061f57829003601f168201915b5050505050908060010154905082565b5f8054905090565b600181908060018154018082558091505060019003905f5260205f20015f909190919091505550565b805f8190555050565b600160045f6101000a81548160ff021916908360018111156106ab576106aa610b23565b5b0217905550565b7fe5f28171f43fc54876f02589c23cc70d19e06f868cc3811c456e8c61c296a27e81336040516106e3929190610e9c565b60405180910390a150565b60045f9054906101000a900460ff1681565b5f815f5411156107135760019050610717565b5f90505b919050565b8060038360405161072d9190610ef3565b9081526020016040518091039020819055505050565b60606040518060400160405280601c81526020017f5468697320697320616e20696e7465726e616c2066756e6374696f6e00000000815250905090565b5f604051905090565b5f80fd5b5f80fd5b5f80fd5b5f80fd5b5f601f19601f8301169050919050565b7f4e487b71000000000000000000000000000000000000000000000000000000005f52604160045260245ffd5b6107df82610799565b810181811067ffffffffffffffff821117156107fe576107fd6107a9565b5b80604052505050565b5f610810610780565b905061081c82826107d6565b919050565b5f67ffffffffffffffff82111561083b5761083a6107a9565b5b61084482610799565b9050602081019050919050565b828183375f83830152505050565b5f61087161086c84610821565b610807565b90508281526020810184848401111561088d5761088c610795565b5b610898848285610851565b509392505050565b5f82601f8301126108b4576108b3610791565b5b81356108c484826020860161085f565b91505092915050565b5f602082840312156108e2576108e1610789565b5b5f82013567ffffffffffffffff8111156108ff576108fe61078d565b5b61090b848285016108a0565b91505092915050565b5f819050919050565b61092681610914565b82525050565b5f60208201905061093f5f83018461091d565b92915050565b61094e81610914565b8114610958575f80fd5b50565b5f8135905061096981610945565b92915050565b5f6020828403121561098457610983610789565b5b5f6109918482850161095b565b91505092915050565b5f8115159050919050565b6109ae8161099a565b82525050565b5f6020820190506109c75f8301846109a5565b92915050565b5f81519050919050565b5f82825260208201905092915050565b8281835e5f83830152505050565b5f6109ff826109cd565b610a0981856109d7565b9350610a198185602086016109e7565b610a2281610799565b840191505092915050565b5f6020820190508181035f830152610a4581846109f5565b905092915050565b5f80fd5b5f80fd5b5f8083601f840112610a6a57610a69610791565b5b8235905067ffffffffffffffff811115610a8757610a86610a4d565b5b602083019150836001820283011115610aa357610aa2610a51565b5b9250929050565b5f8060208385031215610ac057610abf610789565b5b5f83013567ffffffffffffffff811115610add57610adc61078d565b5b610ae985828601610a55565b92509250509250929050565b5f6040820190508181035f830152610b0d81856109f5565b9050610b1c602083018461091d565b9392505050565b7f4e487b71000000000000000000000000000000000000000000000000000000005f52602160045260245ffd5b60028110610b6157610b60610b23565b5b50565b5f819050610b7182610b50565b919050565b5f610b8082610b64565b9050919050565b610b9081610b76565b82525050565b5f602082019050610ba95f830184610b87565b92915050565b5f8060408385031215610bc557610bc4610789565b5b5f83013567ffffffffffffffff811115610be257610be161078d565b5b610bee858286016108a0565b9250506020610bff8582860161095b565b9150509250929050565b7f4e487b71000000000000000000000000000000000000000000000000000000005f52601160045260245ffd5b5f610c4082610914565b9150610c4b83610914565b9250828201905080821115610c6357610c62610c09565b5b92915050565b5f610c7b610c7684610821565b610807565b905082815260208101848484011115610c9757610c96610795565b5b610ca28482856109e7565b509392505050565b5f82601f830112610cbe57610cbd610791565b5b8151610cce848260208601610c69565b91505092915050565b5f60208284031215610cec57610ceb610789565b5b5f82015167ffffffffffffffff811115610d0957610d0861078d565b5b610d1584828501610caa565b91505092915050565b5f610d2882610914565b91507fffffffffffffffffffffffffffffffffffffffffffffffffffffffffffffffff8203610d5a57610d59610c09565b5b600182019050919050565b5f81905092915050565b5f610d7a8385610d65565b9350610d87838584610851565b82840190509392505050565b7f697320617765736f6d65210000000000000000000000000000000000000000005f82015250565b5f610dc7600b83610d65565b9150610dd282610d93565b600b82019050919050565b5f610de9828486610d6f565b9150610df482610dbb565b91508190509392505050565b7f4e487b71000000000000000000000000000000000000000000000000000000005f52602260045260245ffd5b5f6002820490506001821680610e4457607f821691505b602082108103610e5757610e56610e00565b5b50919050565b5f73ffffffffffffffffffffffffffffffffffffffff82169050919050565b5f610e8682610e5d565b9050919050565b610e9681610e7c565b82525050565b5f604082019050610eaf5f83018561091d565b610ebc6020830184610e8d565b9392505050565b5f610ecd826109cd565b610ed78185610d65565b9350610ee78185602086016109e7565b80840191505092915050565b5f610efe8284610ec3565b91508190509291505056fea2646970667358221220c8841041c457e50460c5767573910d2a01de5ef2d1ca0ba81ff40244f5401c6764736f6c634300081a0033",
					"opcodes": "PUSH1 0x80 PUSH1 0x40 MSTORE CALLVALUE DUP1 ISZERO PUSH1 0xE JUMPI PUSH0 DUP1 REVERT JUMPDEST POP PUSH2 0xF3F DUP1 PUSH2 0x1C PUSH0 CODECOPY PUSH0 RETURN INVALID PUSH1 0x80 PUSH1 0x40 MSTORE CALLVALUE DUP1 ISZERO PUSH2 0xF JUMPI PUSH0 DUP1 REVERT JUMPDEST POP PUSH1 0x4 CALLDATASIZE LT PUSH2 0x11F JUMPI PUSH0 CALLDATALOAD PUSH1 0xE0 SHR DUP1 PUSH4 0x91C9D389 GT PUSH2 0xAB JUMPI DUP1 PUSH4 0xBCA353BE GT PUSH2 0x6F JUMPI DUP1 PUSH4 0xBCA353BE EQ PUSH2 0x30A JUMPI DUP1 PUSH4 0xC03ECE06 EQ PUSH2 0x314 JUMPI DUP1 PUSH4 0xC19D93FB EQ PUSH2 0x330 JUMPI DUP1 PUSH4 0xCB6A33F8 EQ PUSH2 0x34E JUMPI DUP1 PUSH4 0xE1B3202A EQ PUSH2 0x37E JUMPI PUSH2 0x11F JUMP JUMPDEST DUP1 PUSH4 0x91C9D389 EQ PUSH2 0x253 JUMPI DUP1 PUSH4 0x9E7A13AD EQ PUSH2 0x283 JUMPI DUP1 PUSH4 0xA621D15E EQ PUSH2 0x2B4 JUMPI DUP1 PUSH4 0xA7E1A364 EQ PUSH2 0x2D2 JUMPI DUP1 PUSH4 0xB6339418 EQ PUSH2 0x2EE JUMPI PUSH2 0x11F JUMP JUMPDEST DUP1 PUSH4 0x3A32B549 GT PUSH2 0xF2 JUMPI DUP1 PUSH4 0x3A32B549 EQ PUSH2 0x1D1 JUMPI DUP1 PUSH4 0x43AAC8BB EQ PUSH2 0x1EF JUMPI DUP1 PUSH4 0x55987940 EQ PUSH2 0x20D JUMPI DUP1 PUSH4 0x8701F8CA EQ PUSH2 0x22B JUMPI DUP1 PUSH4 0x8FDA356D EQ PUSH2 0x249 JUMPI PUSH2 0x11F JUMP JUMPDEST DUP1 PUSH4 0x3A43009 EQ PUSH2 0x123 JUMPI DUP1 PUSH4 0x1DB05A88 EQ PUSH2 0x153 JUMPI DUP1 PUSH4 0x22F3E2D4 EQ PUSH2 0x183 JUMPI DUP1 PUSH4 0x29CD1D96 EQ PUSH2 0x1A1 JUMPI JUMPDEST PUSH0 DUP1 REVERT JUMPDEST PUSH2 0x13D PUSH1 0x4 DUP1 CALLDATASIZE SUB DUP2 ADD SWAP1 PUSH2 0x138 SWAP2 SWAP1 PUSH2 0x8CD JUMP JUMPDEST PUSH2 0x39A JUMP JUMPDEST PUSH1 0x40 MLOAD PUSH2 0x14A SWAP2 SWAP1 PUSH2 0x92C JUMP JUMPDEST PUSH1 0x40 MLOAD DUP1 SWAP2 SUB SWAP1 RETURN JUMPDEST PUSH2 0x16D PUSH1 0x4 DUP1 CALLDATASIZE SUB DUP2 ADD SWAP1 PUSH2 0x168 SWAP2 SWAP1 PUSH2 0x96F JUMP JUMPDEST PUSH2 0x3C7 JUMP JUMPDEST PUSH1 0x40 MLOAD PUSH2 0x17A SWAP2 SWAP1 PUSH2 0x92C JUMP JUMPDEST PUSH1 0x40 MLOAD DUP1 SWAP2 SUB SWAP1 RETURN JUMPDEST PUSH2 0x18B PUSH2 0x3E1 JUMP JUMPDEST PUSH1 0x40 MLOAD PUSH2 0x198 SWAP2 SWAP1 PUSH2 0x9B4 JUMP JUMPDEST PUSH1 0x40 MLOAD DUP1 SWAP2 SUB SWAP1 RETURN JUMPDEST PUSH2 0x1BB PUSH1 0x4 DUP1 CALLDATASIZE SUB DUP2 ADD SWAP1 PUSH2 0x1B6 SWAP2 SWAP1 PUSH2 0x96F JUMP JUMPDEST PUSH2 0x41C JUMP JUMPDEST PUSH1 0x40 MLOAD PUSH2 0x1C8 SWAP2 SWAP1 PUSH2 0x92C JUMP JUMPDEST PUSH1 0x40 MLOAD DUP1 SWAP2 SUB SWAP1 RETURN JUMPDEST PUSH2 0x1D9 PUSH2 0x43C JUMP JUMPDEST PUSH1 0x40 MLOAD PUSH2 0x1E6 SWAP2 SWAP1 PUSH2 0xA2D JUMP JUMPDEST PUSH1 0x40 MLOAD DUP1 SWAP2 SUB SWAP1 RETURN JUMPDEST PUSH2 0x1F7 PUSH2 0x479 JUMP JUMPDEST PUSH1 0x40 MLOAD PUSH2 0x204 SWAP2 SWAP1 PUSH2 0xA2D JUMP JUMPDEST PUSH1 0x40 MLOAD DUP1 SWAP2 SUB SWAP1 RETURN JUMPDEST PUSH2 0x215 PUSH2 0x4F0 JUMP JUMPDEST PUSH1 0x40 MLOAD PUSH2 0x222 SWAP2 SWAP1 PUSH2 0x92C JUMP JUMPDEST PUSH1 0x40 MLOAD DUP1 SWAP2 SUB SWAP1 RETURN JUMPDEST PUSH2 0x233 PUSH2 0x52C JUMP JUMPDEST PUSH1 0x40 MLOAD PUSH2 0x240 SWAP2 SWAP1 PUSH2 0xA2D JUMP JUMPDEST PUSH1 0x40 MLOAD DUP1 SWAP2 SUB SWAP1 RETURN JUMPDEST PUSH2 0x251 PUSH2 0x53B JUMP JUMPDEST STOP JUMPDEST PUSH2 0x26D PUSH1 0x4 DUP1 CALLDATASIZE SUB DUP2 ADD SWAP1 PUSH2 0x268 SWAP2 SWAP1 PUSH2 0xAAA JUMP JUMPDEST PUSH2 0x566 JUMP JUMPDEST PUSH1 0x40 MLOAD PUSH2 0x27A SWAP2 SWAP1 PUSH2 0xA2D JUMP JUMPDEST PUSH1 0x40 MLOAD DUP1 SWAP2 SUB SWAP1 RETURN JUMPDEST PUSH2 0x29D PUSH1 0x4 DUP1 CALLDATASIZE SUB DUP2 ADD SWAP1 PUSH2 0x298 SWAP2 SWAP1 PUSH2 0x96F JUMP JUMPDEST PUSH2 0x597 JUMP JUMPDEST PUSH1 0x40 MLOAD PUSH2 0x2AB SWAP3 SWAP2 SWAP1 PUSH2 0xAF5 JUMP JUMPDEST PUSH1 0x40 MLOAD DUP1 SWAP2 SUB SWAP1 RETURN JUMPDEST PUSH2 0x2BC PUSH2 0x64C JUMP JUMPDEST PUSH1 0x40 MLOAD PUSH2 0x2C9 SWAP2 SWAP1 PUSH2 0x92C JUMP JUMPDEST PUSH1 0x40 MLOAD DUP1 SWAP2 SUB SWAP1 RETURN JUMPDEST PUSH2 0x2EC PUSH1 0x4 DUP1 CALLDATASIZE SUB DUP2 ADD SWAP1 PUSH2 0x2E7 SWAP2 SWAP1 PUSH2 0x96F JUMP JUMPDEST PUSH2 0x654 JUMP JUMPDEST STOP JUMPDEST PUSH2 0x308 PUSH1 0x4 DUP1 CALLDATASIZE SUB DUP2 ADD SWAP1 PUSH2 0x303 SWAP2 SWAP1 PUSH2 0x96F JUMP JUMPDEST PUSH2 0x67D JUMP JUMPDEST STOP JUMPDEST PUSH2 0x312 PUSH2 0x686 JUMP JUMPDEST STOP JUMPDEST PUSH2 0x32E PUSH1 0x4 DUP1 CALLDATASIZE SUB DUP2 ADD SWAP1 PUSH2 0x329 SWAP2 SWAP1 PUSH2 0x96F JUMP JUMPDEST PUSH2 0x6B2 JUMP JUMPDEST STOP JUMPDEST PUSH2 0x338 PUSH2 0x6EE JUMP JUMPDEST PUSH1 0x40 MLOAD PUSH2 0x345 SWAP2 SWAP1 PUSH2 0xB96 JUMP JUMPDEST PUSH1 0x40 MLOAD DUP1 SWAP2 SUB SWAP1 RETURN JUMPDEST PUSH2 0x368 PUSH1 0x4 DUP1 CALLDATASIZE SUB DUP2 ADD SWAP1 PUSH2 0x363 SWAP2 SWAP1 PUSH2 0x96F JUMP JUMPDEST PUSH2 0x700 JUMP JUMPDEST PUSH1 0x40 MLOAD PUSH2 0x375 SWAP2 SWAP1 PUSH2 0x9B4 JUMP JUMPDEST PUSH1 0x40 MLOAD DUP1 SWAP2 SUB SWAP1 RETURN JUMPDEST PUSH2 0x398 PUSH1 0x4 DUP1 CALLDATASIZE SUB DUP2 ADD SWAP1 PUSH2 0x393 SWAP2 SWAP1 PUSH2 0xBAF JUMP JUMPDEST PUSH2 0x71C JUMP JUMPDEST STOP JUMPDEST PUSH1 0x3 DUP2 DUP1 MLOAD PUSH1 0x20 DUP2 ADD DUP3 ADD DUP1 MLOAD DUP5 DUP3 MSTORE PUSH1 0x20 DUP4 ADD PUSH1 0x20 DUP6 ADD KECCAK256 DUP2 DUP4 MSTORE DUP1 SWAP6 POP POP POP POP POP POP PUSH0 SWAP2 POP SWAP1 POP SLOAD DUP2 JUMP JUMPDEST PUSH0 DUP1 PUSH1 0x5 DUP4 PUSH2 0x3D6 SWAP2 SWAP1 PUSH2 0xC36 JUMP JUMPDEST SWAP1 POP DUP1 SWAP2 POP POP SWAP2 SWAP1 POP JUMP JUMPDEST PUSH0 DUP1 PUSH1 0x1 DUP2 GT ISZERO PUSH2 0x3F5 JUMPI PUSH2 0x3F4 PUSH2 0xB23 JUMP JUMPDEST JUMPDEST PUSH1 0x4 PUSH0 SWAP1 SLOAD SWAP1 PUSH2 0x100 EXP SWAP1 DIV PUSH1 0xFF AND PUSH1 0x1 DUP2 GT ISZERO PUSH2 0x416 JUMPI PUSH2 0x415 PUSH2 0xB23 JUMP JUMPDEST JUMPDEST EQ SWAP1 POP SWAP1 JUMP JUMPDEST PUSH1 0x1 DUP2 DUP2 SLOAD DUP2 LT PUSH2 0x42B JUMPI PUSH0 DUP1 REVERT JUMPDEST SWAP1 PUSH0 MSTORE PUSH1 0x20 PUSH0 KECCAK256 ADD PUSH0 SWAP2 POP SWAP1 POP SLOAD DUP2 JUMP JUMPDEST PUSH1 0x60 PUSH1 0x40 MLOAD DUP1 PUSH1 0x40 ADD PUSH1 0x40 MSTORE DUP1 PUSH1 0x1C DUP2 MSTORE PUSH1 0x20 ADD PUSH32 0x5468697320697320616E2065787465726E616C2066756E6374696F6E00000000 DUP2 MSTORE POP SWAP1 POP SWAP1 JUMP JUMPDEST PUSH1 0x60 ADDRESS PUSH20 0xFFFFFFFFFFFFFFFFFFFFFFFFFFFFFFFFFFFFFFFF AND PUSH4 0x43AAC8BB PUSH1 0x40 MLOAD DUP2 PUSH4 0xFFFFFFFF AND PUSH1 0xE0 SHL DUP2 MSTORE PUSH1 0x4 ADD PUSH0 PUSH1 0x40 MLOAD DUP1 DUP4 SUB DUP2 DUP7 GAS STATICCALL ISZERO DUP1 ISZERO PUSH2 0x4C3 JUMPI RETURNDATASIZE PUSH0 DUP1 RETURNDATACOPY RETURNDATASIZE PUSH0 REVERT JUMPDEST POP POP POP POP PUSH1 0x40 MLOAD RETURNDATASIZE PUSH0 DUP3 RETURNDATACOPY RETURNDATASIZE PUSH1 0x1F NOT PUSH1 0x1F DUP3 ADD AND DUP3 ADD DUP1 PUSH1 0x40 MSTORE POP DUP2 ADD SWAP1 PUSH2 0x4EB SWAP2 SWAP1 PUSH2 0xCD7 JUMP JUMPDEST SWAP1 POP SWAP1 JUMP JUMPDEST PUSH0 DUP1 PUSH0 SWAP1 POP PUSH0 PUSH1 0x1 SWAP1 POP JUMPDEST PUSH0 SLOAD DUP2 GT PUSH2 0x524 JUMPI DUP1 DUP3 PUSH2 0x50F SWAP2 SWAP1 PUSH2 0xC36 JUMP JUMPDEST SWAP2 POP DUP1 DUP1 PUSH2 0x51C SWAP1 PUSH2 0xD1E JUMP JUMPDEST SWAP2 POP POP PUSH2 0x4FB JUMP JUMPDEST POP DUP1 SWAP2 POP POP SWAP1 JUMP JUMPDEST PUSH1 0x60 PUSH2 0x536 PUSH2 0x743 JUMP JUMPDEST SWAP1 POP SWAP1 JUMP JUMPDEST PUSH0 PUSH1 0x4 PUSH0 PUSH2 0x100 EXP DUP2 SLOAD DUP2 PUSH1 0xFF MUL NOT AND SWAP1 DUP4 PUSH1 0x1 DUP2 GT ISZERO PUSH2 0x55F JUMPI PUSH2 0x55E PUSH2 0xB23 JUMP JUMPDEST JUMPDEST MUL OR SWAP1 SSTORE POP JUMP JUMPDEST PUSH1 0x60 PUSH0 DUP4 DUP4 PUSH1 0x40 MLOAD PUSH1 0x20 ADD PUSH2 0x57C SWAP3 SWAP2 SWAP1 PUSH2 0xDDD JUMP JUMPDEST PUSH1 0x40 MLOAD PUSH1 0x20 DUP2 DUP4 SUB SUB DUP2 MSTORE SWAP1 PUSH1 0x40 MSTORE SWAP1 POP DUP1 SWAP2 POP POP SWAP3 SWAP2 POP POP JUMP JUMPDEST PUSH1 0x2 DUP2 DUP2 SLOAD DUP2 LT PUSH2 0x5A6 JUMPI PUSH0 DUP1 REVERT JUMPDEST SWAP1 PUSH0 MSTORE PUSH1 0x20 PUSH0 KECCAK256 SWAP1 PUSH1 0x2 MUL ADD PUSH0 SWAP2 POP SWAP1 POP DUP1 PUSH0 ADD DUP1 SLOAD PUSH2 0x5C5 SWAP1 PUSH2 0xE2D JUMP JUMPDEST DUP1 PUSH1 0x1F ADD PUSH1 0x20 DUP1 SWAP2 DIV MUL PUSH1 0x20 ADD PUSH1 0x40 MLOAD SWAP1 DUP2 ADD PUSH1 0x40 MSTORE DUP1 SWAP3 SWAP2 SWAP1 DUP2 DUP2 MSTORE PUSH1 0x20 ADD DUP3 DUP1 SLOAD PUSH2 0x5F1 SWAP1 PUSH2 0xE2D JUMP JUMPDEST DUP1 ISZERO PUSH2 0x63C JUMPI DUP1 PUSH1 0x1F LT PUSH2 0x613 JUMPI PUSH2 0x100 DUP1 DUP4 SLOAD DIV MUL DUP4 MSTORE SWAP2 PUSH1 0x20 ADD SWAP2 PUSH2 0x63C JUMP JUMPDEST DUP3 ADD SWAP2 SWAP1 PUSH0 MSTORE PUSH1 0x20 PUSH0 KECCAK256 SWAP1 JUMPDEST DUP2 SLOAD DUP2 MSTORE SWAP1 PUSH1 0x1 ADD SWAP1 PUSH1 0x20 ADD DUP1 DUP4 GT PUSH2 0x61F JUMPI DUP3 SWAP1 SUB PUSH1 0x1F AND DUP3 ADD SWAP2 JUMPDEST POP POP POP POP POP SWAP1 DUP1 PUSH1 0x1 ADD SLOAD SWAP1 POP DUP3 JUMP JUMPDEST PUSH0 DUP1 SLOAD SWAP1 POP SWAP1 JUMP JUMPDEST PUSH1 0x1 DUP2 SWAP1 DUP1 PUSH1 0x1 DUP2 SLOAD ADD DUP1 DUP3 SSTORE DUP1 SWAP2 POP POP PUSH1 0x1 SWAP1 SUB SWAP1 PUSH0 MSTORE PUSH1 0x20 PUSH0 KECCAK256 ADD PUSH0 SWAP1 SWAP2 SWAP1 SWAP2 SWAP1 SWAP2 POP SSTORE POP JUMP JUMPDEST DUP1 PUSH0 DUP2 SWAP1 SSTORE POP POP JUMP JUMPDEST PUSH1 0x1 PUSH1 0x4 PUSH0 PUSH2 0x100 EXP DUP2 SLOAD DUP2 PUSH1 0xFF MUL NOT AND SWAP1 DUP4 PUSH1 0x1 DUP2 GT ISZERO PUSH2 0x6AB JUMPI PUSH2 0x6AA PUSH2 0xB23 JUMP JUMPDEST JUMPDEST MUL OR SWAP1 SSTORE POP JUMP JUMPDEST PUSH32 0xE5F28171F43FC54876F02589C23CC70D19E06F868CC3811C456E8C61C296A27E DUP2 CALLER PUSH1 0x40 MLOAD PUSH2 0x6E3 SWAP3 SWAP2 SWAP1 PUSH2 0xE9C JUMP JUMPDEST PUSH1 0x40 MLOAD DUP1 SWAP2 SUB SWAP1 LOG1 POP JUMP JUMPDEST PUSH1 0x4 PUSH0 SWAP1 SLOAD SWAP1 PUSH2 0x100 EXP SWAP1 DIV PUSH1 0xFF AND DUP2 JUMP JUMPDEST PUSH0 DUP2 PUSH0 SLOAD GT ISZERO PUSH2 0x713 JUMPI PUSH1 0x1 SWAP1 POP PUSH2 0x717 JUMP JUMPDEST PUSH0 SWAP1 POP JUMPDEST SWAP2 SWAP1 POP JUMP JUMPDEST DUP1 PUSH1 0x3 DUP4 PUSH1 0x40 MLOAD PUSH2 0x72D SWAP2 SWAP1 PUSH2 0xEF3 JUMP JUMPDEST SWAP1 DUP2 MSTORE PUSH1 0x20 ADD PUSH1 0x40 MLOAD DUP1 SWAP2 SUB SWAP1 KECCAK256 DUP2 SWAP1 SSTORE POP POP POP JUMP JUMPDEST PUSH1 0x60 PUSH1 0x40 MLOAD DUP1 PUSH1 0x40 ADD PUSH1 0x40 MSTORE DUP1 PUSH1 0x1C DUP2 MSTORE PUSH1 0x20 ADD PUSH32 0x5468697320697320616E20696E7465726E616C2066756E6374696F6E00000000 DUP2 MSTORE POP SWAP1 POP SWAP1 JUMP JUMPDEST PUSH0 PUSH1 0x40 MLOAD SWAP1 POP SWAP1 JUMP JUMPDEST PUSH0 DUP1 REVERT JUMPDEST PUSH0 DUP1 REVERT JUMPDEST PUSH0 DUP1 REVERT JUMPDEST PUSH0 DUP1 REVERT JUMPDEST PUSH0 PUSH1 0x1F NOT PUSH1 0x1F DUP4 ADD AND SWAP1 POP SWAP2 SWAP1 POP JUMP JUMPDEST PUSH32 0x4E487B7100000000000000000000000000000000000000000000000000000000 PUSH0 MSTORE PUSH1 0x41 PUSH1 0x4 MSTORE PUSH1 0x24 PUSH0 REVERT JUMPDEST PUSH2 0x7DF DUP3 PUSH2 0x799 JUMP JUMPDEST DUP2 ADD DUP2 DUP2 LT PUSH8 0xFFFFFFFFFFFFFFFF DUP3 GT OR ISZERO PUSH2 0x7FE JUMPI PUSH2 0x7FD PUSH2 0x7A9 JUMP JUMPDEST JUMPDEST DUP1 PUSH1 0x40 MSTORE POP POP POP JUMP JUMPDEST PUSH0 PUSH2 0x810 PUSH2 0x780 JUMP JUMPDEST SWAP1 POP PUSH2 0x81C DUP3 DUP3 PUSH2 0x7D6 JUMP JUMPDEST SWAP2 SWAP1 POP JUMP JUMPDEST PUSH0 PUSH8 0xFFFFFFFFFFFFFFFF DUP3 GT ISZERO PUSH2 0x83B JUMPI PUSH2 0x83A PUSH2 0x7A9 JUMP JUMPDEST JUMPDEST PUSH2 0x844 DUP3 PUSH2 0x799 JUMP JUMPDEST SWAP1 POP PUSH1 0x20 DUP2 ADD SWAP1 POP SWAP2 SWAP1 POP JUMP JUMPDEST DUP3 DUP2 DUP4 CALLDATACOPY PUSH0 DUP4 DUP4 ADD MSTORE POP POP POP JUMP JUMPDEST PUSH0 PUSH2 0x871 PUSH2 0x86C DUP5 PUSH2 0x821 JUMP JUMPDEST PUSH2 0x807 JUMP JUMPDEST SWAP1 POP DUP3 DUP2 MSTORE PUSH1 0x20 DUP2 ADD DUP5 DUP5 DUP5 ADD GT ISZERO PUSH2 0x88D JUMPI PUSH2 0x88C PUSH2 0x795 JUMP JUMPDEST JUMPDEST PUSH2 0x898 DUP5 DUP3 DUP6 PUSH2 0x851 JUMP JUMPDEST POP SWAP4 SWAP3 POP POP POP JUMP JUMPDEST PUSH0 DUP3 PUSH1 0x1F DUP4 ADD SLT PUSH2 0x8B4 JUMPI PUSH2 0x8B3 PUSH2 0x791 JUMP JUMPDEST JUMPDEST DUP2 CALLDATALOAD PUSH2 0x8C4 DUP5 DUP3 PUSH1 0x20 DUP7 ADD PUSH2 0x85F JUMP JUMPDEST SWAP2 POP POP SWAP3 SWAP2 POP POP JUMP JUMPDEST PUSH0 PUSH1 0x20 DUP3 DUP5 SUB SLT ISZERO PUSH2 0x8E2 JUMPI PUSH2 0x8E1 PUSH2 0x789 JUMP JUMPDEST JUMPDEST PUSH0 DUP3 ADD CALLDATALOAD PUSH8 0xFFFFFFFFFFFFFFFF DUP2 GT ISZERO PUSH2 0x8FF JUMPI PUSH2 0x8FE PUSH2 0x78D JUMP JUMPDEST JUMPDEST PUSH2 0x90B DUP5 DUP3 DUP6 ADD PUSH2 0x8A0 JUMP JUMPDEST SWAP2 POP POP SWAP3 SWAP2 POP POP JUMP JUMPDEST PUSH0 DUP2 SWAP1 POP SWAP2 SWAP1 POP JUMP JUMPDEST PUSH2 0x926 DUP2 PUSH2 0x914 JUMP JUMPDEST DUP3 MSTORE POP POP JUMP JUMPDEST PUSH0 PUSH1 0x20 DUP3 ADD SWAP1 POP PUSH2 0x93F PUSH0 DUP4 ADD DUP5 PUSH2 0x91D JUMP JUMPDEST SWAP3 SWAP2 POP POP JUMP JUMPDEST PUSH2 0x94E DUP2 PUSH2 0x914 JUMP JUMPDEST DUP2 EQ PUSH2 0x958 JUMPI PUSH0 DUP1 REVERT JUMPDEST POP JUMP JUMPDEST PUSH0 DUP2 CALLDATALOAD SWAP1 POP PUSH2 0x969 DUP2 PUSH2 0x945 JUMP JUMPDEST SWAP3 SWAP2 POP POP JUMP JUMPDEST PUSH0 PUSH1 0x20 DUP3 DUP5 SUB SLT ISZERO PUSH2 0x984 JUMPI PUSH2 0x983 PUSH2 0x789 JUMP JUMPDEST JUMPDEST PUSH0 PUSH2 0x991 DUP5 DUP3 DUP6 ADD PUSH2 0x95B JUMP JUMPDEST SWAP2 POP POP SWAP3 SWAP2 POP POP JUMP JUMPDEST PUSH0 DUP2 ISZERO ISZERO SWAP1 POP SWAP2 SWAP1 POP JUMP JUMPDEST PUSH2 0x9AE DUP2 PUSH2 0x99A JUMP JUMPDEST DUP3 MSTORE POP POP JUMP JUMPDEST PUSH0 PUSH1 0x20 DUP3 ADD SWAP1 POP PUSH2 0x9C7 PUSH0 DUP4 ADD DUP5 PUSH2 0x9A5 JUMP JUMPDEST SWAP3 SWAP2 POP POP JUMP JUMPDEST PUSH0 DUP2 MLOAD SWAP1 POP SWAP2 SWAP1 POP JUMP JUMPDEST PUSH0 DUP3 DUP3 MSTORE PUSH1 0x20 DUP3 ADD SWAP1 POP SWAP3 SWAP2 POP POP JUMP JUMPDEST DUP3 DUP2 DUP4 MCOPY PUSH0 DUP4 DUP4 ADD MSTORE POP POP POP JUMP JUMPDEST PUSH0 PUSH2 0x9FF DUP3 PUSH2 0x9CD JUMP JUMPDEST PUSH2 0xA09 DUP2 DUP6 PUSH2 0x9D7 JUMP JUMPDEST SWAP4 POP PUSH2 0xA19 DUP2 DUP6 PUSH1 0x20 DUP7 ADD PUSH2 0x9E7 JUMP JUMPDEST PUSH2 0xA22 DUP2 PUSH2 0x799 JUMP JUMPDEST DUP5 ADD SWAP2 POP POP SWAP3 SWAP2 POP POP JUMP JUMPDEST PUSH0 PUSH1 0x20 DUP3 ADD SWAP1 POP DUP2 DUP2 SUB PUSH0 DUP4 ADD MSTORE PUSH2 0xA45 DUP2 DUP5 PUSH2 0x9F5 JUMP JUMPDEST SWAP1 POP SWAP3 SWAP2 POP POP JUMP JUMPDEST PUSH0 DUP1 REVERT JUMPDEST PUSH0 DUP1 REVERT JUMPDEST PUSH0 DUP1 DUP4 PUSH1 0x1F DUP5 ADD SLT PUSH2 0xA6A JUMPI PUSH2 0xA69 PUSH2 0x791 JUMP JUMPDEST JUMPDEST DUP3 CALLDATALOAD SWAP1 POP PUSH8 0xFFFFFFFFFFFFFFFF DUP2 GT ISZERO PUSH2 0xA87 JUMPI PUSH2 0xA86 PUSH2 0xA4D JUMP JUMPDEST JUMPDEST PUSH1 0x20 DUP4 ADD SWAP2 POP DUP4 PUSH1 0x1 DUP3 MUL DUP4 ADD GT ISZERO PUSH2 0xAA3 JUMPI PUSH2 0xAA2 PUSH2 0xA51 JUMP JUMPDEST JUMPDEST SWAP3 POP SWAP3 SWAP1 POP JUMP JUMPDEST PUSH0 DUP1 PUSH1 0x20 DUP4 DUP6 SUB SLT ISZERO PUSH2 0xAC0 JUMPI PUSH2 0xABF PUSH2 0x789 JUMP JUMPDEST JUMPDEST PUSH0 DUP4 ADD CALLDATALOAD PUSH8 0xFFFFFFFFFFFFFFFF DUP2 GT ISZERO PUSH2 0xADD JUMPI PUSH2 0xADC PUSH2 0x78D JUMP JUMPDEST JUMPDEST PUSH2 0xAE9 DUP6 DUP3 DUP7 ADD PUSH2 0xA55 JUMP JUMPDEST SWAP3 POP SWAP3 POP POP SWAP3 POP SWAP3 SWAP1 POP JUMP JUMPDEST PUSH0 PUSH1 0x40 DUP3 ADD SWAP1 POP DUP2 DUP2 SUB PUSH0 DUP4 ADD MSTORE PUSH2 0xB0D DUP2 DUP6 PUSH2 0x9F5 JUMP JUMPDEST SWAP1 POP PUSH2 0xB1C PUSH1 0x20 DUP4 ADD DUP5 PUSH2 0x91D JUMP JUMPDEST SWAP4 SWAP3 POP POP POP JUMP JUMPDEST PUSH32 0x4E487B7100000000000000000000000000000000000000000000000000000000 PUSH0 MSTORE PUSH1 0x21 PUSH1 0x4 MSTORE PUSH1 0x24 PUSH0 REVERT JUMPDEST PUSH1 0x2 DUP2 LT PUSH2 0xB61 JUMPI PUSH2 0xB60 PUSH2 0xB23 JUMP JUMPDEST JUMPDEST POP JUMP JUMPDEST PUSH0 DUP2 SWAP1 POP PUSH2 0xB71 DUP3 PUSH2 0xB50 JUMP JUMPDEST SWAP2 SWAP1 POP JUMP JUMPDEST PUSH0 PUSH2 0xB80 DUP3 PUSH2 0xB64 JUMP JUMPDEST SWAP1 POP SWAP2 SWAP1 POP JUMP JUMPDEST PUSH2 0xB90 DUP2 PUSH2 0xB76 JUMP JUMPDEST DUP3 MSTORE POP POP JUMP JUMPDEST PUSH0 PUSH1 0x20 DUP3 ADD SWAP1 POP PUSH2 0xBA9 PUSH0 DUP4 ADD DUP5 PUSH2 0xB87 JUMP JUMPDEST SWAP3 SWAP2 POP POP JUMP JUMPDEST PUSH0 DUP1 PUSH1 0x40 DUP4 DUP6 SUB SLT ISZERO PUSH2 0xBC5 JUMPI PUSH2 0xBC4 PUSH2 0x789 JUMP JUMPDEST JUMPDEST PUSH0 DUP4 ADD CALLDATALOAD PUSH8 0xFFFFFFFFFFFFFFFF DUP2 GT ISZERO PUSH2 0xBE2 JUMPI PUSH2 0xBE1 PUSH2 0x78D JUMP JUMPDEST JUMPDEST PUSH2 0xBEE DUP6 DUP3 DUP7 ADD PUSH2 0x8A0 JUMP JUMPDEST SWAP3 POP POP PUSH1 0x20 PUSH2 0xBFF DUP6 DUP3 DUP7 ADD PUSH2 0x95B JUMP JUMPDEST SWAP2 POP POP SWAP3 POP SWAP3 SWAP1 POP JUMP JUMPDEST PUSH32 0x4E487B7100000000000000000000000000000000000000000000000000000000 PUSH0 MSTORE PUSH1 0x11 PUSH1 0x4 MSTORE PUSH1 0x24 PUSH0 REVERT JUMPDEST PUSH0 PUSH2 0xC40 DUP3 PUSH2 0x914 JUMP JUMPDEST SWAP2 POP PUSH2 0xC4B DUP4 PUSH2 0x914 JUMP JUMPDEST SWAP3 POP DUP3 DUP3 ADD SWAP1 POP DUP1 DUP3 GT ISZERO PUSH2 0xC63 JUMPI PUSH2 0xC62 PUSH2 0xC09 JUMP JUMPDEST JUMPDEST SWAP3 SWAP2 POP POP JUMP JUMPDEST PUSH0 PUSH2 0xC7B PUSH2 0xC76 DUP5 PUSH2 0x821 JUMP JUMPDEST PUSH2 0x807 JUMP JUMPDEST SWAP1 POP DUP3 DUP2 MSTORE PUSH1 0x20 DUP2 ADD DUP5 DUP5 DUP5 ADD GT ISZERO PUSH2 0xC97 JUMPI PUSH2 0xC96 PUSH2 0x795 JUMP JUMPDEST JUMPDEST PUSH2 0xCA2 DUP5 DUP3 DUP6 PUSH2 0x9E7 JUMP JUMPDEST POP SWAP4 SWAP3 POP POP POP JUMP JUMPDEST PUSH0 DUP3 PUSH1 0x1F DUP4 ADD SLT PUSH2 0xCBE JUMPI PUSH2 0xCBD PUSH2 0x791 JUMP JUMPDEST JUMPDEST DUP2 MLOAD PUSH2 0xCCE DUP5 DUP3 PUSH1 0x20 DUP7 ADD PUSH2 0xC69 JUMP JUMPDEST SWAP2 POP POP SWAP3 SWAP2 POP POP JUMP JUMPDEST PUSH0 PUSH1 0x20 DUP3 DUP5 SUB SLT ISZERO PUSH2 0xCEC JUMPI PUSH2 0xCEB PUSH2 0x789 JUMP JUMPDEST JUMPDEST PUSH0 DUP3 ADD MLOAD PUSH8 0xFFFFFFFFFFFFFFFF DUP2 GT ISZERO PUSH2 0xD09 JUMPI PUSH2 0xD08 PUSH2 0x78D JUMP JUMPDEST JUMPDEST PUSH2 0xD15 DUP5 DUP3 DUP6 ADD PUSH2 0xCAA JUMP JUMPDEST SWAP2 POP POP SWAP3 SWAP2 POP POP JUMP JUMPDEST PUSH0 PUSH2 0xD28 DUP3 PUSH2 0x914 JUMP JUMPDEST SWAP2 POP PUSH32 0xFFFFFFFFFFFFFFFFFFFFFFFFFFFFFFFFFFFFFFFFFFFFFFFFFFFFFFFFFFFFFFFF DUP3 SUB PUSH2 0xD5A JUMPI PUSH2 0xD59 PUSH2 0xC09 JUMP JUMPDEST JUMPDEST PUSH1 0x1 DUP3 ADD SWAP1 POP SWAP2 SWAP1 POP JUMP JUMPDEST PUSH0 DUP2 SWAP1 POP SWAP3 SWAP2 POP POP JUMP JUMPDEST PUSH0 PUSH2 0xD7A DUP4 DUP6 PUSH2 0xD65 JUMP JUMPDEST SWAP4 POP PUSH2 0xD87 DUP4 DUP6 DUP5 PUSH2 0x851 JUMP JUMPDEST DUP3 DUP5 ADD SWAP1 POP SWAP4 SWAP3 POP POP POP JUMP JUMPDEST PUSH32 0x697320617765736F6D6521000000000000000000000000000000000000000000 PUSH0 DUP3 ADD MSTORE POP JUMP JUMPDEST PUSH0 PUSH2 0xDC7 PUSH1 0xB DUP4 PUSH2 0xD65 JUMP JUMPDEST SWAP2 POP PUSH2 0xDD2 DUP3 PUSH2 0xD93 JUMP JUMPDEST PUSH1 0xB DUP3 ADD SWAP1 POP SWAP2 SWAP1 POP JUMP JUMPDEST PUSH0 PUSH2 0xDE9 DUP3 DUP5 DUP7 PUSH2 0xD6F JUMP JUMPDEST SWAP2 POP PUSH2 0xDF4 DUP3 PUSH2 0xDBB JUMP JUMPDEST SWAP2 POP DUP2 SWAP1 POP SWAP4 SWAP3 POP POP POP JUMP JUMPDEST PUSH32 0x4E487B7100000000000000000000000000000000000000000000000000000000 PUSH0 MSTORE PUSH1 0x22 PUSH1 0x4 MSTORE PUSH1 0x24 PUSH0 REVERT JUMPDEST PUSH0 PUSH1 0x2 DUP3 DIV SWAP1 POP PUSH1 0x1 DUP3 AND DUP1 PUSH2 0xE44 JUMPI PUSH1 0x7F DUP3 AND SWAP2 POP JUMPDEST PUSH1 0x20 DUP3 LT DUP2 SUB PUSH2 0xE57 JUMPI PUSH2 0xE56 PUSH2 0xE00 JUMP JUMPDEST JUMPDEST POP SWAP2 SWAP1 POP JUMP JUMPDEST PUSH0 PUSH20 0xFFFFFFFFFFFFFFFFFFFFFFFFFFFFFFFFFFFFFFFF DUP3 AND SWAP1 POP SWAP2 SWAP1 POP JUMP JUMPDEST PUSH0 PUSH2 0xE86 DUP3 PUSH2 0xE5D JUMP JUMPDEST SWAP1 POP SWAP2 SWAP1 POP JUMP JUMPDEST PUSH2 0xE96 DUP2 PUSH2 0xE7C JUMP JUMPDEST DUP3 MSTORE POP POP JUMP JUMPDEST PUSH0 PUSH1 0x40 DUP3 ADD SWAP1 POP PUSH2 0xEAF PUSH0 DUP4 ADD DUP6 PUSH2 0x91D JUMP JUMPDEST PUSH2 0xEBC PUSH1 0x20 DUP4 ADD DUP5 PUSH2 0xE8D JUMP JUMPDEST SWAP4 SWAP3 POP POP POP JUMP JUMPDEST PUSH0 PUSH2 0xECD DUP3 PUSH2 0x9CD JUMP JUMPDEST PUSH2 0xED7 DUP2 DUP6 PUSH2 0xD65 JUMP JUMPDEST SWAP4 POP PUSH2 0xEE7 DUP2 DUP6 PUSH1 0x20 DUP7 ADD PUSH2 0x9E7 JUMP JUMPDEST DUP1 DUP5 ADD SWAP2 POP POP SWAP3 SWAP2 POP POP JUMP JUMPDEST PUSH0 PUSH2 0xEFE DUP3 DUP5 PUSH2 0xEC3 JUMP JUMPDEST SWAP2 POP DUP2 SWAP1 POP SWAP3 SWAP2 POP POP JUMP INVALID LOG2 PUSH5 0x6970667358 0x22 SLT KECCAK256 0xC8 DUP5 LT COINBASE 0xC4 JUMPI 0xE5 DIV PUSH1 0xC5 PUSH23 0x7573910D2A01DE5EF2D1CA0BA81FF40244F5401C676473 PUSH16 0x6C634300081A00330000000000000000 "
				},
				"gasEstimates": {
					"creation": {
						"codeDepositCost": "780600",
						"executionCost": "810",
						"totalCost": "781410"
					},
					"external": {
						"ContractStateString(string)": "infinite",
						"activateContract()": "24539",
						"addFavoriteNumber(uint256)": "46910",
						"addperson(string,uint256)": "infinite",
						"callInternalFunction()": "infinite",
						"deactivateContract()": "24451",
						"externalFunction()": "infinite",
						"favoriteNumbers(uint256)": "infinite",
						"getFavoriteNumber()": "2499",
						"isActive()": "2599",
						"isGreaterThan(uint256)": "2823",
						"nameTofavoriteNumber(string)": "infinite",
						"people(uint256)": "infinite",
						"state()": "2620",
						"storeFavoriteNumber(uint256)": "infinite",
						"storeNumber(uint256)": "22625",
						"sumFavorite()": "infinite",
						"textExternalFunction()": "infinite",
						"updateNumber(uint256)": "infinite"
					},
					"internal": {
						"addPerson(string memory,uint256)": "infinite",
						"internalFunction()": "infinite"
					}
				},
				"methodIdentifiers": {
					"ContractStateString(string)": "91c9d389",
					"activateContract()": "8fda356d",
					"addFavoriteNumber(uint256)": "a7e1a364",
					"addperson(string,uint256)": "e1b3202a",
					"callInternalFunction()": "8701f8ca",
					"deactivateContract()": "bca353be",
					"externalFunction()": "3a32b549",
					"favoriteNumbers(uint256)": "29cd1d96",
					"getFavoriteNumber()": "a621d15e",
					"isActive()": "22f3e2d4",
					"isGreaterThan(uint256)": "cb6a33f8",
					"nameTofavoriteNumber(string)": "03a43009",
					"people(uint256)": "9e7a13ad",
					"state()": "c19d93fb",
					"storeFavoriteNumber(uint256)": "c03ece06",
					"storeNumber(uint256)": "b6339418",
					"sumFavorite()": "55987940",
					"textExternalFunction()": "43aac8bb",
					"updateNumber(uint256)": "1db05a88"
				}
			},
			"storageLayout": {
				"storage": [
					{
						"astId": 3,
						"contract": "simplestorage.sol/simplestorage.sol:SimpleStorage",
						"label": "favoriteNumber",
						"offset": 0,
						"slot": "0",
						"type": "t_uint256"
					},
					{
						"astId": 6,
						"contract": "simplestorage.sol/simplestorage.sol:SimpleStorage",
						"label": "favoriteNumbers",
						"offset": 0,
						"slot": "1",
						"type": "t_array(t_uint256)dyn_storage"
					},
					{
						"astId": 15,
						"contract": "simplestorage.sol/simplestorage.sol:SimpleStorage",
						"label": "people",
						"offset": 0,
						"slot": "2",
						"type": "t_array(t_struct(Person)11_storage)dyn_storage"
					},
					{
						"astId": 19,
						"contract": "simplestorage.sol/simplestorage.sol:SimpleStorage",
						"label": "nameTofavoriteNumber",
						"offset": 0,
						"slot": "3",
						"type": "t_mapping(t_string_memory_ptr,t_uint256)"
					},
					{
						"astId": 31,
						"contract": "simplestorage.sol/simplestorage.sol:SimpleStorage",
						"label": "state",
						"offset": 0,
						"slot": "4",
						"type": "t_enum(ContractState)28"
					}
				],
				"types": {
					"t_array(t_struct(Person)11_storage)dyn_storage": {
						"base": "t_struct(Person)11_storage",
						"encoding": "dynamic_array",
						"label": "struct SimpleStorage.Person[]",
						"numberOfBytes": "32"
					},
					"t_array(t_uint256)dyn_storage": {
						"base": "t_uint256",
						"encoding": "dynamic_array",
						"label": "uint256[]",
						"numberOfBytes": "32"
					},
					"t_enum(ContractState)28": {
						"encoding": "inplace",
						"label": "enum SimpleStorage.ContractState",
						"numberOfBytes": "1"
					},
					"t_mapping(t_string_memory_ptr,t_uint256)": {
						"encoding": "mapping",
						"key": "t_string_memory_ptr",
						"label": "mapping(string => uint256)",
						"numberOfBytes": "32",
						"value": "t_uint256"
					},
					"t_string_memory_ptr": {
						"encoding": "bytes",
						"label": "string",
						"numberOfBytes": "32"
					},
					"t_string_storage": {
						"encoding": "bytes",
						"label": "string",
						"numberOfBytes": "32"
					},
					"t_struct(Person)11_storage": {
						"encoding": "inplace",
						"label": "struct SimpleStorage.Person",
						"members": [
							{
								"astId": 8,
								"contract": "simplestorage.sol/simplestorage.sol:SimpleStorage",
								"label": "name",
								"offset": 0,
								"slot": "0",
								"type": "t_string_storage"
							},
							{
								"astId": 10,
								"contract": "simplestorage.sol/simplestorage.sol:SimpleStorage",
								"label": "favoriteNumber",
								"offset": 0,
								"slot": "1",
								"type": "t_uint256"
							}
						],
						"numberOfBytes": "64"
					},
					"t_uint256": {
						"encoding": "inplace",
						"label": "uint256",
						"numberOfBytes": "32"
					}
				}
			},
			"userdoc": {
				"kind": "user",
				"methods": {},
				"version": 1
			}
		}
	}
}